{"contracts/MonoLiquidity.sol":{"MonoLiquidity":{"abi":[{"anonymous":false,"inputs":[{"indexed":true,"internalType":"address","name":"tokenA","type":"address"},{"indexed":true,"internalType":"address","name":"pair","type":"address"},{"indexed":true,"internalType":"uint256","name":"amount","type":"uint256"}],"name":"CalculatedSwapAmount","type":"event"},{"anonymous":false,"inputs":[{"indexed":true,"internalType":"address","name":"provider","type":"address"},{"indexed":true,"internalType":"address","name":"liquidityPool","type":"address"},{"indexed":false,"internalType":"uint256[]","name":"amountsProvided","type":"uint256[]"}],"name":"LiquidityProvided","type":"event"},{"anonymous":false,"inputs":[{"indexed":true,"internalType":"address","name":"provider","type":"address"},{"indexed":true,"internalType":"address","name":"liquidityPool","type":"address"},{"indexed":false,"internalType":"uint256[]","name":"amountsRemoved","type":"uint256[]"}],"name":"LiquidtyRemoved","type":"event"},{"inputs":[{"internalType":"address","name":"_tokenA","type":"address"},{"internalType":"address","name":"_tokenB","type":"address"},{"internalType":"uint256[]","name":"_amounts","type":"uint256[]"},{"internalType":"address","name":"_liquidityProvider","type":"address"}],"name":"addLiquidity","outputs":[],"stateMutability":"nonpayable","type":"function"},{"inputs":[{"internalType":"address","name":"_tokenA","type":"address"},{"internalType":"address","name":"_tokenB","type":"address"},{"internalType":"uint256","name":"_amountA","type":"uint256"}],"name":"calculateOptimalLiquidity","outputs":[],"stateMutability":"nonpayable","type":"function"},{"inputs":[{"internalType":"uint256","name":"r","type":"uint256"},{"internalType":"uint256","name":"a","type":"uint256"}],"name":"getSwapAmount","outputs":[{"internalType":"uint256","name":"","type":"uint256"}],"stateMutability":"pure","type":"function"},{"inputs":[{"internalType":"address","name":"_remover","type":"address"},{"internalType":"address","name":"_tokenA","type":"address"},{"internalType":"address","name":"_tokenB","type":"address"}],"name":"removeLiquidity","outputs":[],"stateMutability":"nonpayable","type":"function"}],"evm":{"bytecode":{"linkReferences":{},"object":"608060405234801561001057600080fd5b50611b75806100206000396000f3fe608060405234801561001057600080fd5b506004361061004c5760003560e01c80633480c45814610051578063368519f31461006d57806361e4290d1461009d578063b1ec2387146100b9575b600080fd5b61006b60048036038101906100669190611076565b6100d5565b005b610087600480360381019061008291906110ff565b610140565b604051610094919061114e565b60405180910390f35b6100b760048036038101906100b291906112c2565b6101aa565b005b6100d360048036038101906100ce9190611345565b610c47565b005b60008060008573ffffffffffffffffffffffffffffffffffffffff1673ffffffffffffffffffffffffffffffffffffffff168152602001908152602001600020905060005b8180549050811015610139578080610131906113c7565b91505061011a565b5050505050565b60006107ca6107cd846101539190611410565b61018e623cda20856101659190611410565b623cda29876101749190611410565b61017e919061146a565b866101899190611410565b610f20565b61019891906114c0565b6101a29190611523565b905092915050565b6000735c69bee701ef814a2b6a3edd4b1652cb9cc5aa6f73ffffffffffffffffffffffffffffffffffffffff1663e6a4390586866040518363ffffffff1660e01b81526004016101fb929190611563565b60206040518083038186803b15801561021357600080fd5b505afa158015610227573d6000803e3d6000fd5b505050506040513d601f19601f8201168201806040525081019061024b91906115a1565b9050600073ffffffffffffffffffffffffffffffffffffffff168173ffffffffffffffffffffffffffffffffffffffff1614156102bd576040517f08c379a00000000000000000000000000000000000000000000000000000000081526004016102b49061162b565b60405180910390fd5b8473ffffffffffffffffffffffffffffffffffffffff166323b872dd3330866000815181106102ef576102ee61164b565b5b60200260200101516040518463ffffffff1660e01b81526004016103159392919061167a565b602060405180830381600087803b15801561032f57600080fd5b505af1158015610343573d6000803e3d6000fd5b505050506040513d601f19601f8201168201806040525081019061036791906116e9565b6103a6576040517f08c379a000000000000000000000000000000000000000000000000000000000815260040161039d90611762565b60405180910390fd5b8373ffffffffffffffffffffffffffffffffffffffff166323b872dd3330866001815181106103d8576103d761164b565b5b60200260200101516040518463ffffffff1660e01b81526004016103fe9392919061167a565b602060405180830381600087803b15801561041857600080fd5b505af115801561042c573d6000803e3d6000fd5b505050506040513d601f19601f8201168201806040525081019061045091906116e9565b61048f576040517f08c379a0000000000000000000000000000000000000000000000000000000008152600401610486906117ce565b60405180910390fd5b60008573ffffffffffffffffffffffffffffffffffffffff166370a08231306040518263ffffffff1660e01b81526004016104ca91906117ee565b60206040518083038186803b1580156104e257600080fd5b505afa1580156104f6573d6000803e3d6000fd5b505050506040513d601f19601f8201168201806040525081019061051a919061181e565b905060008573ffffffffffffffffffffffffffffffffffffffff166370a08231306040518263ffffffff1660e01b815260040161055791906117ee565b60206040518083038186803b15801561056f57600080fd5b505afa158015610583573d6000803e3d6000fd5b505050506040513d601f19601f820116820180604052508101906105a7919061181e565b90508673ffffffffffffffffffffffffffffffffffffffff1663095ea7b3737a250d5630b4cf539739df2c5dacb4c659f2488d846040518363ffffffff1660e01b81526004016105f892919061184b565b602060405180830381600087803b15801561061257600080fd5b505af1158015610626573d6000803e3d6000fd5b505050506040513d601f19601f8201168201806040525081019061064a91906116e9565b508573ffffffffffffffffffffffffffffffffffffffff1663095ea7b3737a250d5630b4cf539739df2c5dacb4c659f2488d836040518363ffffffff1660e01b815260040161069a92919061184b565b602060405180830381600087803b1580156106b457600080fd5b505af11580156106c8573d6000803e3d6000fd5b505050506040513d601f19601f820116820180604052508101906106ec91906116e9565b506000806000737a250d5630b4cf539739df2c5dacb4c659f2488d73ffffffffffffffffffffffffffffffffffffffff1663e8e337008b8b888860008030426040518963ffffffff1660e01b815260040161074e9897969594939291906118b9565b606060405180830381600087803b15801561076857600080fd5b505af115801561077c573d6000803e3d6000fd5b505050506040513d601f19601f820116820180604052508101906107a09190611937565b9250925092506000600267ffffffffffffffff8111156107c3576107c261117f565b5b6040519080825280602002602001820160405280156107f15781602001602082028036833780820191505090505b50905083816000815181106108095761080861164b565b5b602002602001018181525050828160018151811061082a5761082961164b565b5b60200260200101818152505060006040518060c001604052808d73ffffffffffffffffffffffffffffffffffffffff1681526020018c73ffffffffffffffffffffffffffffffffffffffff1681526020018973ffffffffffffffffffffffffffffffffffffffff1681526020018b81526020018381526020018481525090506000808a73ffffffffffffffffffffffffffffffffffffffff1673ffffffffffffffffffffffffffffffffffffffff16815260200190815260200160002081908060018154018082558091505060019003906000526020600020906006020160009091909190915060008201518160000160006101000a81548173ffffffffffffffffffffffffffffffffffffffff021916908373ffffffffffffffffffffffffffffffffffffffff16021790555060208201518160010160006101000a81548173ffffffffffffffffffffffffffffffffffffffff021916908373ffffffffffffffffffffffffffffffffffffffff16021790555060408201518160020160006101000a81548173ffffffffffffffffffffffffffffffffffffffff021916908373ffffffffffffffffffffffffffffffffffffffff1602179055506060820151816003019080519060200190610a02929190610f9a565b506080820151816004019080519060200190610a1f929190610f9a565b5060a08201518160050155505081600081518110610a4057610a3f61164b565b5b60200260200101518a600081518110610a5c57610a5b61164b565b5b6020026020010151610a6e91906114c0565b600160008b73ffffffffffffffffffffffffffffffffffffffff1673ffffffffffffffffffffffffffffffffffffffff16815260200190815260200160002060008e73ffffffffffffffffffffffffffffffffffffffff1673ffffffffffffffffffffffffffffffffffffffff1681526020019081526020016000206000828254610af9919061146a565b9250508190555081600181518110610b1457610b1361164b565b5b60200260200101518a600181518110610b3057610b2f61164b565b5b6020026020010151610b4291906114c0565b600160008b73ffffffffffffffffffffffffffffffffffffffff1673ffffffffffffffffffffffffffffffffffffffff16815260200190815260200160002060008e73ffffffffffffffffffffffffffffffffffffffff1673ffffffffffffffffffffffffffffffffffffffff1681526020019081526020016000206000828254610bcd919061146a565b925050819055508773ffffffffffffffffffffffffffffffffffffffff168973ffffffffffffffffffffffffffffffffffffffff167f0abece5f4aed6cf1fac4ddf8497567f25c27ca46be2737e9db8cc79679c3122d84604051610c319190611a48565b60405180910390a3505050505050505050505050565b6000735c69bee701ef814a2b6a3edd4b1652cb9cc5aa6f73ffffffffffffffffffffffffffffffffffffffff1663e6a4390585856040518363ffffffff1660e01b8152600401610c98929190611563565b60206040518083038186803b158015610cb057600080fd5b505afa158015610cc4573d6000803e3d6000fd5b505050506040513d601f19601f82011682018060405250810190610ce891906115a1565b90506000808273ffffffffffffffffffffffffffffffffffffffff16630902f1ac6040518163ffffffff1660e01b815260040160606040518083038186803b158015610d3357600080fd5b505afa158015610d47573d6000803e3d6000fd5b505050506040513d601f19601f82011682018060405250810190610d6b9190611aec565b506dffffffffffffffffffffffffffff1691506dffffffffffffffffffffffffffff16915060008673ffffffffffffffffffffffffffffffffffffffff168473ffffffffffffffffffffffffffffffffffffffff16630dfe16816040518163ffffffff1660e01b815260040160206040518083038186803b158015610def57600080fd5b505afa158015610e03573d6000803e3d6000fd5b505050506040513d601f19601f82011682018060405250810190610e2791906115a1565b73ffffffffffffffffffffffffffffffffffffffff161415610eaf57610e4d8386610140565b9050808473ffffffffffffffffffffffffffffffffffffffff168873ffffffffffffffffffffffffffffffffffffffff167f320244947b776b8f8f9e298e95e85722c190ee3d524faae6577627e1d1bb599960405160405180910390a4610f17565b610eb98286610140565b9050808473ffffffffffffffffffffffffffffffffffffffff168873ffffffffffffffffffffffffffffffffffffffff167f320244947b776b8f8f9e298e95e85722c190ee3d524faae6577627e1d1bb599960405160405180910390a45b50505050505050565b60006003821115610f875781905060006001600284610f3f9190611523565b610f49919061146a565b90505b81811015610f81578091506002818285610f669190611523565b610f70919061146a565b610f7a9190611523565b9050610f4c565b50610f95565b60008214610f9457600190505b5b919050565b828054828255906000526020600020908101928215610fd6579160200282015b82811115610fd5578251825591602001919060010190610fba565b5b509050610fe39190610fe7565b5090565b5b80821115611000576000816000905550600101610fe8565b5090565b6000604051905090565b600080fd5b600080fd5b600073ffffffffffffffffffffffffffffffffffffffff82169050919050565b600061104382611018565b9050919050565b61105381611038565b811461105e57600080fd5b50565b6000813590506110708161104a565b92915050565b60008060006060848603121561108f5761108e61100e565b5b600061109d86828701611061565b93505060206110ae86828701611061565b92505060406110bf86828701611061565b9150509250925092565b6000819050919050565b6110dc816110c9565b81146110e757600080fd5b50565b6000813590506110f9816110d3565b92915050565b600080604083850312156111165761111561100e565b5b6000611124858286016110ea565b9250506020611135858286016110ea565b9150509250929050565b611148816110c9565b82525050565b6000602082019050611163600083018461113f565b92915050565b600080fd5b6000601f19601f8301169050919050565b7f4e487b7100000000000000000000000000000000000000000000000000000000600052604160045260246000fd5b6111b78261116e565b810181811067ffffffffffffffff821117156111d6576111d561117f565b5b80604052505050565b60006111e9611004565b90506111f582826111ae565b919050565b600067ffffffffffffffff8211156112155761121461117f565b5b602082029050602081019050919050565b600080fd5b600061123e611239846111fa565b6111df565b9050808382526020820190506020840283018581111561126157611260611226565b5b835b8181101561128a578061127688826110ea565b845260208401935050602081019050611263565b5050509392505050565b600082601f8301126112a9576112a8611169565b5b81356112b984826020860161122b565b91505092915050565b600080600080608085870312156112dc576112db61100e565b5b60006112ea87828801611061565b94505060206112fb87828801611061565b935050604085013567ffffffffffffffff81111561131c5761131b611013565b5b61132887828801611294565b925050606061133987828801611061565b91505092959194509250565b60008060006060848603121561135e5761135d61100e565b5b600061136c86828701611061565b935050602061137d86828701611061565b925050604061138e868287016110ea565b9150509250925092565b7f4e487b7100000000000000000000000000000000000000000000000000000000600052601160045260246000fd5b60006113d2826110c9565b91507fffffffffffffffffffffffffffffffffffffffffffffffffffffffffffffffff82141561140557611404611398565b5b600182019050919050565b600061141b826110c9565b9150611426836110c9565b9250817fffffffffffffffffffffffffffffffffffffffffffffffffffffffffffffffff048311821515161561145f5761145e611398565b5b828202905092915050565b6000611475826110c9565b9150611480836110c9565b9250827fffffffffffffffffffffffffffffffffffffffffffffffffffffffffffffffff038211156114b5576114b4611398565b5b828201905092915050565b60006114cb826110c9565b91506114d6836110c9565b9250828210156114e9576114e8611398565b5b828203905092915050565b7f4e487b7100000000000000000000000000000000000000000000000000000000600052601260045260246000fd5b600061152e826110c9565b9150611539836110c9565b925082611549576115486114f4565b5b828204905092915050565b61155d81611038565b82525050565b60006040820190506115786000830185611554565b6115856020830184611554565b9392505050565b60008151905061159b8161104a565b92915050565b6000602082840312156115b7576115b661100e565b5b60006115c58482850161158c565b91505092915050565b600082825260208201905092915050565b7f5061697220646f6573206e6f7420657869737400000000000000000000000000600082015250565b60006116156013836115ce565b9150611620826115df565b602082019050919050565b6000602082019050818103600083015261164481611608565b9050919050565b7f4e487b7100000000000000000000000000000000000000000000000000000000600052603260045260246000fd5b600060608201905061168f6000830186611554565b61169c6020830185611554565b6116a9604083018461113f565b949350505050565b60008115159050919050565b6116c6816116b1565b81146116d157600080fd5b50565b6000815190506116e3816116bd565b92915050565b6000602082840312156116ff576116fe61100e565b5b600061170d848285016116d4565b91505092915050565b7f4465706f73697420666f7220746f6b656e2041206661696c6564000000000000600082015250565b600061174c601a836115ce565b915061175782611716565b602082019050919050565b6000602082019050818103600083015261177b8161173f565b9050919050565b7f4465706f73697420666f7220746f6b656e2042206661696c6564000000000000600082015250565b60006117b8601a836115ce565b91506117c382611782565b602082019050919050565b600060208201905081810360008301526117e7816117ab565b9050919050565b60006020820190506118036000830184611554565b92915050565b600081519050611818816110d3565b92915050565b6000602082840312156118345761183361100e565b5b600061184284828501611809565b91505092915050565b60006040820190506118606000830185611554565b61186d602083018461113f565b9392505050565b6000819050919050565b6000819050919050565b60006118a361189e61189984611874565b61187e565b6110c9565b9050919050565b6118b381611888565b82525050565b6000610100820190506118cf600083018b611554565b6118dc602083018a611554565b6118e9604083018961113f565b6118f6606083018861113f565b61190360808301876118aa565b61191060a08301866118aa565b61191d60c0830185611554565b61192a60e083018461113f565b9998505050505050505050565b6000806000606084860312156119505761194f61100e565b5b600061195e86828701611809565b935050602061196f86828701611809565b925050604061198086828701611809565b9150509250925092565b600081519050919050565b600082825260208201905092915050565b6000819050602082019050919050565b6119bf816110c9565b82525050565b60006119d183836119b6565b60208301905092915050565b6000602082019050919050565b60006119f58261198a565b6119ff8185611995565b9350611a0a836119a6565b8060005b83811015611a3b578151611a2288826119c5565b9750611a2d836119dd565b925050600181019050611a0e565b5085935050505092915050565b60006020820190508181036000830152611a6281846119ea565b905092915050565b60006dffffffffffffffffffffffffffff82169050919050565b611a8d81611a6a565b8114611a9857600080fd5b50565b600081519050611aaa81611a84565b92915050565b600063ffffffff82169050919050565b611ac981611ab0565b8114611ad457600080fd5b50565b600081519050611ae681611ac0565b92915050565b600080600060608486031215611b0557611b0461100e565b5b6000611b1386828701611a9b565b9350506020611b2486828701611a9b565b9250506040611b3586828701611ad7565b915050925092509256fea2646970667358221220d45790d9b16936c5019a0495e114d9e10139e9dcf8d547638bfa79997e52d7f064736f6c63430008090033","opcodes":"PUSH1 0x80 PUSH1 0x40 MSTORE CALLVALUE DUP1 ISZERO PUSH2 0x10 JUMPI PUSH1 0x0 DUP1 REVERT JUMPDEST POP PUSH2 0x1B75 DUP1 PUSH2 0x20 PUSH1 0x0 CODECOPY PUSH1 0x0 RETURN INVALID PUSH1 0x80 PUSH1 0x40 MSTORE CALLVALUE DUP1 ISZERO PUSH2 0x10 JUMPI PUSH1 0x0 DUP1 REVERT JUMPDEST POP PUSH1 0x4 CALLDATASIZE LT PUSH2 0x4C JUMPI PUSH1 0x0 CALLDATALOAD PUSH1 0xE0 SHR DUP1 PUSH4 0x3480C458 EQ PUSH2 0x51 JUMPI DUP1 PUSH4 0x368519F3 EQ PUSH2 0x6D JUMPI DUP1 PUSH4 0x61E4290D EQ PUSH2 0x9D JUMPI DUP1 PUSH4 0xB1EC2387 EQ PUSH2 0xB9 JUMPI JUMPDEST PUSH1 0x0 DUP1 REVERT JUMPDEST PUSH2 0x6B PUSH1 0x4 DUP1 CALLDATASIZE SUB DUP2 ADD SWAP1 PUSH2 0x66 SWAP2 SWAP1 PUSH2 0x1076 JUMP JUMPDEST PUSH2 0xD5 JUMP JUMPDEST STOP JUMPDEST PUSH2 0x87 PUSH1 0x4 DUP1 CALLDATASIZE SUB DUP2 ADD SWAP1 PUSH2 0x82 SWAP2 SWAP1 PUSH2 0x10FF JUMP JUMPDEST PUSH2 0x140 JUMP JUMPDEST PUSH1 0x40 MLOAD PUSH2 0x94 SWAP2 SWAP1 PUSH2 0x114E JUMP JUMPDEST PUSH1 0x40 MLOAD DUP1 SWAP2 SUB SWAP1 RETURN JUMPDEST PUSH2 0xB7 PUSH1 0x4 DUP1 CALLDATASIZE SUB DUP2 ADD SWAP1 PUSH2 0xB2 SWAP2 SWAP1 PUSH2 0x12C2 JUMP JUMPDEST PUSH2 0x1AA JUMP JUMPDEST STOP JUMPDEST PUSH2 0xD3 PUSH1 0x4 DUP1 CALLDATASIZE SUB DUP2 ADD SWAP1 PUSH2 0xCE SWAP2 SWAP1 PUSH2 0x1345 JUMP JUMPDEST PUSH2 0xC47 JUMP JUMPDEST STOP JUMPDEST PUSH1 0x0 DUP1 PUSH1 0x0 DUP6 PUSH20 0xFFFFFFFFFFFFFFFFFFFFFFFFFFFFFFFFFFFFFFFF AND PUSH20 0xFFFFFFFFFFFFFFFFFFFFFFFFFFFFFFFFFFFFFFFF AND DUP2 MSTORE PUSH1 0x20 ADD SWAP1 DUP2 MSTORE PUSH1 0x20 ADD PUSH1 0x0 KECCAK256 SWAP1 POP PUSH1 0x0 JUMPDEST DUP2 DUP1 SLOAD SWAP1 POP DUP2 LT ISZERO PUSH2 0x139 JUMPI DUP1 DUP1 PUSH2 0x131 SWAP1 PUSH2 0x13C7 JUMP JUMPDEST SWAP2 POP POP PUSH2 0x11A JUMP JUMPDEST POP POP POP POP POP JUMP JUMPDEST PUSH1 0x0 PUSH2 0x7CA PUSH2 0x7CD DUP5 PUSH2 0x153 SWAP2 SWAP1 PUSH2 0x1410 JUMP JUMPDEST PUSH2 0x18E PUSH3 0x3CDA20 DUP6 PUSH2 0x165 SWAP2 SWAP1 PUSH2 0x1410 JUMP JUMPDEST PUSH3 0x3CDA29 DUP8 PUSH2 0x174 SWAP2 SWAP1 PUSH2 0x1410 JUMP JUMPDEST PUSH2 0x17E SWAP2 SWAP1 PUSH2 0x146A JUMP JUMPDEST DUP7 PUSH2 0x189 SWAP2 SWAP1 PUSH2 0x1410 JUMP JUMPDEST PUSH2 0xF20 JUMP JUMPDEST PUSH2 0x198 SWAP2 SWAP1 PUSH2 0x14C0 JUMP JUMPDEST PUSH2 0x1A2 SWAP2 SWAP1 PUSH2 0x1523 JUMP JUMPDEST SWAP1 POP SWAP3 SWAP2 POP POP JUMP JUMPDEST PUSH1 0x0 PUSH20 0x5C69BEE701EF814A2B6A3EDD4B1652CB9CC5AA6F PUSH20 0xFFFFFFFFFFFFFFFFFFFFFFFFFFFFFFFFFFFFFFFF AND PUSH4 0xE6A43905 DUP7 DUP7 PUSH1 0x40 MLOAD DUP4 PUSH4 0xFFFFFFFF AND PUSH1 0xE0 SHL DUP2 MSTORE PUSH1 0x4 ADD PUSH2 0x1FB SWAP3 SWAP2 SWAP1 PUSH2 0x1563 JUMP JUMPDEST PUSH1 0x20 PUSH1 0x40 MLOAD DUP1 DUP4 SUB DUP2 DUP7 DUP1 EXTCODESIZE ISZERO DUP1 ISZERO PUSH2 0x213 JUMPI PUSH1 0x0 DUP1 REVERT JUMPDEST POP GAS STATICCALL ISZERO DUP1 ISZERO PUSH2 0x227 JUMPI RETURNDATASIZE PUSH1 0x0 DUP1 RETURNDATACOPY RETURNDATASIZE PUSH1 0x0 REVERT JUMPDEST POP POP POP POP PUSH1 0x40 MLOAD RETURNDATASIZE PUSH1 0x1F NOT PUSH1 0x1F DUP3 ADD AND DUP3 ADD DUP1 PUSH1 0x40 MSTORE POP DUP2 ADD SWAP1 PUSH2 0x24B SWAP2 SWAP1 PUSH2 0x15A1 JUMP JUMPDEST SWAP1 POP PUSH1 0x0 PUSH20 0xFFFFFFFFFFFFFFFFFFFFFFFFFFFFFFFFFFFFFFFF AND DUP2 PUSH20 0xFFFFFFFFFFFFFFFFFFFFFFFFFFFFFFFFFFFFFFFF AND EQ ISZERO PUSH2 0x2BD JUMPI PUSH1 0x40 MLOAD PUSH32 0x8C379A000000000000000000000000000000000000000000000000000000000 DUP2 MSTORE PUSH1 0x4 ADD PUSH2 0x2B4 SWAP1 PUSH2 0x162B JUMP JUMPDEST PUSH1 0x40 MLOAD DUP1 SWAP2 SUB SWAP1 REVERT JUMPDEST DUP5 PUSH20 0xFFFFFFFFFFFFFFFFFFFFFFFFFFFFFFFFFFFFFFFF AND PUSH4 0x23B872DD CALLER ADDRESS DUP7 PUSH1 0x0 DUP2 MLOAD DUP2 LT PUSH2 0x2EF JUMPI PUSH2 0x2EE PUSH2 0x164B JUMP JUMPDEST JUMPDEST PUSH1 0x20 MUL PUSH1 0x20 ADD ADD MLOAD PUSH1 0x40 MLOAD DUP5 PUSH4 0xFFFFFFFF AND PUSH1 0xE0 SHL DUP2 MSTORE PUSH1 0x4 ADD PUSH2 0x315 SWAP4 SWAP3 SWAP2 SWAP1 PUSH2 0x167A JUMP JUMPDEST PUSH1 0x20 PUSH1 0x40 MLOAD DUP1 DUP4 SUB DUP2 PUSH1 0x0 DUP8 DUP1 EXTCODESIZE ISZERO DUP1 ISZERO PUSH2 0x32F JUMPI PUSH1 0x0 DUP1 REVERT JUMPDEST POP GAS CALL ISZERO DUP1 ISZERO PUSH2 0x343 JUMPI RETURNDATASIZE PUSH1 0x0 DUP1 RETURNDATACOPY RETURNDATASIZE PUSH1 0x0 REVERT JUMPDEST POP POP POP POP PUSH1 0x40 MLOAD RETURNDATASIZE PUSH1 0x1F NOT PUSH1 0x1F DUP3 ADD AND DUP3 ADD DUP1 PUSH1 0x40 MSTORE POP DUP2 ADD SWAP1 PUSH2 0x367 SWAP2 SWAP1 PUSH2 0x16E9 JUMP JUMPDEST PUSH2 0x3A6 JUMPI PUSH1 0x40 MLOAD PUSH32 0x8C379A000000000000000000000000000000000000000000000000000000000 DUP2 MSTORE PUSH1 0x4 ADD PUSH2 0x39D SWAP1 PUSH2 0x1762 JUMP JUMPDEST PUSH1 0x40 MLOAD DUP1 SWAP2 SUB SWAP1 REVERT JUMPDEST DUP4 PUSH20 0xFFFFFFFFFFFFFFFFFFFFFFFFFFFFFFFFFFFFFFFF AND PUSH4 0x23B872DD CALLER ADDRESS DUP7 PUSH1 0x1 DUP2 MLOAD DUP2 LT PUSH2 0x3D8 JUMPI PUSH2 0x3D7 PUSH2 0x164B JUMP JUMPDEST JUMPDEST PUSH1 0x20 MUL PUSH1 0x20 ADD ADD MLOAD PUSH1 0x40 MLOAD DUP5 PUSH4 0xFFFFFFFF AND PUSH1 0xE0 SHL DUP2 MSTORE PUSH1 0x4 ADD PUSH2 0x3FE SWAP4 SWAP3 SWAP2 SWAP1 PUSH2 0x167A JUMP JUMPDEST PUSH1 0x20 PUSH1 0x40 MLOAD DUP1 DUP4 SUB DUP2 PUSH1 0x0 DUP8 DUP1 EXTCODESIZE ISZERO DUP1 ISZERO PUSH2 0x418 JUMPI PUSH1 0x0 DUP1 REVERT JUMPDEST POP GAS CALL ISZERO DUP1 ISZERO PUSH2 0x42C JUMPI RETURNDATASIZE PUSH1 0x0 DUP1 RETURNDATACOPY RETURNDATASIZE PUSH1 0x0 REVERT JUMPDEST POP POP POP POP PUSH1 0x40 MLOAD RETURNDATASIZE PUSH1 0x1F NOT PUSH1 0x1F DUP3 ADD AND DUP3 ADD DUP1 PUSH1 0x40 MSTORE POP DUP2 ADD SWAP1 PUSH2 0x450 SWAP2 SWAP1 PUSH2 0x16E9 JUMP JUMPDEST PUSH2 0x48F JUMPI PUSH1 0x40 MLOAD PUSH32 0x8C379A000000000000000000000000000000000000000000000000000000000 DUP2 MSTORE PUSH1 0x4 ADD PUSH2 0x486 SWAP1 PUSH2 0x17CE JUMP JUMPDEST PUSH1 0x40 MLOAD DUP1 SWAP2 SUB SWAP1 REVERT JUMPDEST PUSH1 0x0 DUP6 PUSH20 0xFFFFFFFFFFFFFFFFFFFFFFFFFFFFFFFFFFFFFFFF AND PUSH4 0x70A08231 ADDRESS PUSH1 0x40 MLOAD DUP3 PUSH4 0xFFFFFFFF AND PUSH1 0xE0 SHL DUP2 MSTORE PUSH1 0x4 ADD PUSH2 0x4CA SWAP2 SWAP1 PUSH2 0x17EE JUMP JUMPDEST PUSH1 0x20 PUSH1 0x40 MLOAD DUP1 DUP4 SUB DUP2 DUP7 DUP1 EXTCODESIZE ISZERO DUP1 ISZERO PUSH2 0x4E2 JUMPI PUSH1 0x0 DUP1 REVERT JUMPDEST POP GAS STATICCALL ISZERO DUP1 ISZERO PUSH2 0x4F6 JUMPI RETURNDATASIZE PUSH1 0x0 DUP1 RETURNDATACOPY RETURNDATASIZE PUSH1 0x0 REVERT JUMPDEST POP POP POP POP PUSH1 0x40 MLOAD RETURNDATASIZE PUSH1 0x1F NOT PUSH1 0x1F DUP3 ADD AND DUP3 ADD DUP1 PUSH1 0x40 MSTORE POP DUP2 ADD SWAP1 PUSH2 0x51A SWAP2 SWAP1 PUSH2 0x181E JUMP JUMPDEST SWAP1 POP PUSH1 0x0 DUP6 PUSH20 0xFFFFFFFFFFFFFFFFFFFFFFFFFFFFFFFFFFFFFFFF AND PUSH4 0x70A08231 ADDRESS PUSH1 0x40 MLOAD DUP3 PUSH4 0xFFFFFFFF AND PUSH1 0xE0 SHL DUP2 MSTORE PUSH1 0x4 ADD PUSH2 0x557 SWAP2 SWAP1 PUSH2 0x17EE JUMP JUMPDEST PUSH1 0x20 PUSH1 0x40 MLOAD DUP1 DUP4 SUB DUP2 DUP7 DUP1 EXTCODESIZE ISZERO DUP1 ISZERO PUSH2 0x56F JUMPI PUSH1 0x0 DUP1 REVERT JUMPDEST POP GAS STATICCALL ISZERO DUP1 ISZERO PUSH2 0x583 JUMPI RETURNDATASIZE PUSH1 0x0 DUP1 RETURNDATACOPY RETURNDATASIZE PUSH1 0x0 REVERT JUMPDEST POP POP POP POP PUSH1 0x40 MLOAD RETURNDATASIZE PUSH1 0x1F NOT PUSH1 0x1F DUP3 ADD AND DUP3 ADD DUP1 PUSH1 0x40 MSTORE POP DUP2 ADD SWAP1 PUSH2 0x5A7 SWAP2 SWAP1 PUSH2 0x181E JUMP JUMPDEST SWAP1 POP DUP7 PUSH20 0xFFFFFFFFFFFFFFFFFFFFFFFFFFFFFFFFFFFFFFFF AND PUSH4 0x95EA7B3 PUSH20 0x7A250D5630B4CF539739DF2C5DACB4C659F2488D DUP5 PUSH1 0x40 MLOAD DUP4 PUSH4 0xFFFFFFFF AND PUSH1 0xE0 SHL DUP2 MSTORE PUSH1 0x4 ADD PUSH2 0x5F8 SWAP3 SWAP2 SWAP1 PUSH2 0x184B JUMP JUMPDEST PUSH1 0x20 PUSH1 0x40 MLOAD DUP1 DUP4 SUB DUP2 PUSH1 0x0 DUP8 DUP1 EXTCODESIZE ISZERO DUP1 ISZERO PUSH2 0x612 JUMPI PUSH1 0x0 DUP1 REVERT JUMPDEST POP GAS CALL ISZERO DUP1 ISZERO PUSH2 0x626 JUMPI RETURNDATASIZE PUSH1 0x0 DUP1 RETURNDATACOPY RETURNDATASIZE PUSH1 0x0 REVERT JUMPDEST POP POP POP POP PUSH1 0x40 MLOAD RETURNDATASIZE PUSH1 0x1F NOT PUSH1 0x1F DUP3 ADD AND DUP3 ADD DUP1 PUSH1 0x40 MSTORE POP DUP2 ADD SWAP1 PUSH2 0x64A SWAP2 SWAP1 PUSH2 0x16E9 JUMP JUMPDEST POP DUP6 PUSH20 0xFFFFFFFFFFFFFFFFFFFFFFFFFFFFFFFFFFFFFFFF AND PUSH4 0x95EA7B3 PUSH20 0x7A250D5630B4CF539739DF2C5DACB4C659F2488D DUP4 PUSH1 0x40 MLOAD DUP4 PUSH4 0xFFFFFFFF AND PUSH1 0xE0 SHL DUP2 MSTORE PUSH1 0x4 ADD PUSH2 0x69A SWAP3 SWAP2 SWAP1 PUSH2 0x184B JUMP JUMPDEST PUSH1 0x20 PUSH1 0x40 MLOAD DUP1 DUP4 SUB DUP2 PUSH1 0x0 DUP8 DUP1 EXTCODESIZE ISZERO DUP1 ISZERO PUSH2 0x6B4 JUMPI PUSH1 0x0 DUP1 REVERT JUMPDEST POP GAS CALL ISZERO DUP1 ISZERO PUSH2 0x6C8 JUMPI RETURNDATASIZE PUSH1 0x0 DUP1 RETURNDATACOPY RETURNDATASIZE PUSH1 0x0 REVERT JUMPDEST POP POP POP POP PUSH1 0x40 MLOAD RETURNDATASIZE PUSH1 0x1F NOT PUSH1 0x1F DUP3 ADD AND DUP3 ADD DUP1 PUSH1 0x40 MSTORE POP DUP2 ADD SWAP1 PUSH2 0x6EC SWAP2 SWAP1 PUSH2 0x16E9 JUMP JUMPDEST POP PUSH1 0x0 DUP1 PUSH1 0x0 PUSH20 0x7A250D5630B4CF539739DF2C5DACB4C659F2488D PUSH20 0xFFFFFFFFFFFFFFFFFFFFFFFFFFFFFFFFFFFFFFFF AND PUSH4 0xE8E33700 DUP12 DUP12 DUP9 DUP9 PUSH1 0x0 DUP1 ADDRESS TIMESTAMP PUSH1 0x40 MLOAD DUP10 PUSH4 0xFFFFFFFF AND PUSH1 0xE0 SHL DUP2 MSTORE PUSH1 0x4 ADD PUSH2 0x74E SWAP9 SWAP8 SWAP7 SWAP6 SWAP5 SWAP4 SWAP3 SWAP2 SWAP1 PUSH2 0x18B9 JUMP JUMPDEST PUSH1 0x60 PUSH1 0x40 MLOAD DUP1 DUP4 SUB DUP2 PUSH1 0x0 DUP8 DUP1 EXTCODESIZE ISZERO DUP1 ISZERO PUSH2 0x768 JUMPI PUSH1 0x0 DUP1 REVERT JUMPDEST POP GAS CALL ISZERO DUP1 ISZERO PUSH2 0x77C JUMPI RETURNDATASIZE PUSH1 0x0 DUP1 RETURNDATACOPY RETURNDATASIZE PUSH1 0x0 REVERT JUMPDEST POP POP POP POP PUSH1 0x40 MLOAD RETURNDATASIZE PUSH1 0x1F NOT PUSH1 0x1F DUP3 ADD AND DUP3 ADD DUP1 PUSH1 0x40 MSTORE POP DUP2 ADD SWAP1 PUSH2 0x7A0 SWAP2 SWAP1 PUSH2 0x1937 JUMP JUMPDEST SWAP3 POP SWAP3 POP SWAP3 POP PUSH1 0x0 PUSH1 0x2 PUSH8 0xFFFFFFFFFFFFFFFF DUP2 GT ISZERO PUSH2 0x7C3 JUMPI PUSH2 0x7C2 PUSH2 0x117F JUMP JUMPDEST JUMPDEST PUSH1 0x40 MLOAD SWAP1 DUP1 DUP3 MSTORE DUP1 PUSH1 0x20 MUL PUSH1 0x20 ADD DUP3 ADD PUSH1 0x40 MSTORE DUP1 ISZERO PUSH2 0x7F1 JUMPI DUP2 PUSH1 0x20 ADD PUSH1 0x20 DUP3 MUL DUP1 CALLDATASIZE DUP4 CALLDATACOPY DUP1 DUP3 ADD SWAP2 POP POP SWAP1 POP JUMPDEST POP SWAP1 POP DUP4 DUP2 PUSH1 0x0 DUP2 MLOAD DUP2 LT PUSH2 0x809 JUMPI PUSH2 0x808 PUSH2 0x164B JUMP JUMPDEST JUMPDEST PUSH1 0x20 MUL PUSH1 0x20 ADD ADD DUP2 DUP2 MSTORE POP POP DUP3 DUP2 PUSH1 0x1 DUP2 MLOAD DUP2 LT PUSH2 0x82A JUMPI PUSH2 0x829 PUSH2 0x164B JUMP JUMPDEST JUMPDEST PUSH1 0x20 MUL PUSH1 0x20 ADD ADD DUP2 DUP2 MSTORE POP POP PUSH1 0x0 PUSH1 0x40 MLOAD DUP1 PUSH1 0xC0 ADD PUSH1 0x40 MSTORE DUP1 DUP14 PUSH20 0xFFFFFFFFFFFFFFFFFFFFFFFFFFFFFFFFFFFFFFFF AND DUP2 MSTORE PUSH1 0x20 ADD DUP13 PUSH20 0xFFFFFFFFFFFFFFFFFFFFFFFFFFFFFFFFFFFFFFFF AND DUP2 MSTORE PUSH1 0x20 ADD DUP10 PUSH20 0xFFFFFFFFFFFFFFFFFFFFFFFFFFFFFFFFFFFFFFFF AND DUP2 MSTORE PUSH1 0x20 ADD DUP12 DUP2 MSTORE PUSH1 0x20 ADD DUP4 DUP2 MSTORE PUSH1 0x20 ADD DUP5 DUP2 MSTORE POP SWAP1 POP PUSH1 0x0 DUP1 DUP11 PUSH20 0xFFFFFFFFFFFFFFFFFFFFFFFFFFFFFFFFFFFFFFFF AND PUSH20 0xFFFFFFFFFFFFFFFFFFFFFFFFFFFFFFFFFFFFFFFF AND DUP2 MSTORE PUSH1 0x20 ADD SWAP1 DUP2 MSTORE PUSH1 0x20 ADD PUSH1 0x0 KECCAK256 DUP2 SWAP1 DUP1 PUSH1 0x1 DUP2 SLOAD ADD DUP1 DUP3 SSTORE DUP1 SWAP2 POP POP PUSH1 0x1 SWAP1 SUB SWAP1 PUSH1 0x0 MSTORE PUSH1 0x20 PUSH1 0x0 KECCAK256 SWAP1 PUSH1 0x6 MUL ADD PUSH1 0x0 SWAP1 SWAP2 SWAP1 SWAP2 SWAP1 SWAP2 POP PUSH1 0x0 DUP3 ADD MLOAD DUP2 PUSH1 0x0 ADD PUSH1 0x0 PUSH2 0x100 EXP DUP2 SLOAD DUP2 PUSH20 0xFFFFFFFFFFFFFFFFFFFFFFFFFFFFFFFFFFFFFFFF MUL NOT AND SWAP1 DUP4 PUSH20 0xFFFFFFFFFFFFFFFFFFFFFFFFFFFFFFFFFFFFFFFF AND MUL OR SWAP1 SSTORE POP PUSH1 0x20 DUP3 ADD MLOAD DUP2 PUSH1 0x1 ADD PUSH1 0x0 PUSH2 0x100 EXP DUP2 SLOAD DUP2 PUSH20 0xFFFFFFFFFFFFFFFFFFFFFFFFFFFFFFFFFFFFFFFF MUL NOT AND SWAP1 DUP4 PUSH20 0xFFFFFFFFFFFFFFFFFFFFFFFFFFFFFFFFFFFFFFFF AND MUL OR SWAP1 SSTORE POP PUSH1 0x40 DUP3 ADD MLOAD DUP2 PUSH1 0x2 ADD PUSH1 0x0 PUSH2 0x100 EXP DUP2 SLOAD DUP2 PUSH20 0xFFFFFFFFFFFFFFFFFFFFFFFFFFFFFFFFFFFFFFFF MUL NOT AND SWAP1 DUP4 PUSH20 0xFFFFFFFFFFFFFFFFFFFFFFFFFFFFFFFFFFFFFFFF AND MUL OR SWAP1 SSTORE POP PUSH1 0x60 DUP3 ADD MLOAD DUP2 PUSH1 0x3 ADD SWAP1 DUP1 MLOAD SWAP1 PUSH1 0x20 ADD SWAP1 PUSH2 0xA02 SWAP3 SWAP2 SWAP1 PUSH2 0xF9A JUMP JUMPDEST POP PUSH1 0x80 DUP3 ADD MLOAD DUP2 PUSH1 0x4 ADD SWAP1 DUP1 MLOAD SWAP1 PUSH1 0x20 ADD SWAP1 PUSH2 0xA1F SWAP3 SWAP2 SWAP1 PUSH2 0xF9A JUMP JUMPDEST POP PUSH1 0xA0 DUP3 ADD MLOAD DUP2 PUSH1 0x5 ADD SSTORE POP POP DUP2 PUSH1 0x0 DUP2 MLOAD DUP2 LT PUSH2 0xA40 JUMPI PUSH2 0xA3F PUSH2 0x164B JUMP JUMPDEST JUMPDEST PUSH1 0x20 MUL PUSH1 0x20 ADD ADD MLOAD DUP11 PUSH1 0x0 DUP2 MLOAD DUP2 LT PUSH2 0xA5C JUMPI PUSH2 0xA5B PUSH2 0x164B JUMP JUMPDEST JUMPDEST PUSH1 0x20 MUL PUSH1 0x20 ADD ADD MLOAD PUSH2 0xA6E SWAP2 SWAP1 PUSH2 0x14C0 JUMP JUMPDEST PUSH1 0x1 PUSH1 0x0 DUP12 PUSH20 0xFFFFFFFFFFFFFFFFFFFFFFFFFFFFFFFFFFFFFFFF AND PUSH20 0xFFFFFFFFFFFFFFFFFFFFFFFFFFFFFFFFFFFFFFFF AND DUP2 MSTORE PUSH1 0x20 ADD SWAP1 DUP2 MSTORE PUSH1 0x20 ADD PUSH1 0x0 KECCAK256 PUSH1 0x0 DUP15 PUSH20 0xFFFFFFFFFFFFFFFFFFFFFFFFFFFFFFFFFFFFFFFF AND PUSH20 0xFFFFFFFFFFFFFFFFFFFFFFFFFFFFFFFFFFFFFFFF AND DUP2 MSTORE PUSH1 0x20 ADD SWAP1 DUP2 MSTORE PUSH1 0x20 ADD PUSH1 0x0 KECCAK256 PUSH1 0x0 DUP3 DUP3 SLOAD PUSH2 0xAF9 SWAP2 SWAP1 PUSH2 0x146A JUMP JUMPDEST SWAP3 POP POP DUP2 SWAP1 SSTORE POP DUP2 PUSH1 0x1 DUP2 MLOAD DUP2 LT PUSH2 0xB14 JUMPI PUSH2 0xB13 PUSH2 0x164B JUMP JUMPDEST JUMPDEST PUSH1 0x20 MUL PUSH1 0x20 ADD ADD MLOAD DUP11 PUSH1 0x1 DUP2 MLOAD DUP2 LT PUSH2 0xB30 JUMPI PUSH2 0xB2F PUSH2 0x164B JUMP JUMPDEST JUMPDEST PUSH1 0x20 MUL PUSH1 0x20 ADD ADD MLOAD PUSH2 0xB42 SWAP2 SWAP1 PUSH2 0x14C0 JUMP JUMPDEST PUSH1 0x1 PUSH1 0x0 DUP12 PUSH20 0xFFFFFFFFFFFFFFFFFFFFFFFFFFFFFFFFFFFFFFFF AND PUSH20 0xFFFFFFFFFFFFFFFFFFFFFFFFFFFFFFFFFFFFFFFF AND DUP2 MSTORE PUSH1 0x20 ADD SWAP1 DUP2 MSTORE PUSH1 0x20 ADD PUSH1 0x0 KECCAK256 PUSH1 0x0 DUP15 PUSH20 0xFFFFFFFFFFFFFFFFFFFFFFFFFFFFFFFFFFFFFFFF AND PUSH20 0xFFFFFFFFFFFFFFFFFFFFFFFFFFFFFFFFFFFFFFFF AND DUP2 MSTORE PUSH1 0x20 ADD SWAP1 DUP2 MSTORE PUSH1 0x20 ADD PUSH1 0x0 KECCAK256 PUSH1 0x0 DUP3 DUP3 SLOAD PUSH2 0xBCD SWAP2 SWAP1 PUSH2 0x146A JUMP JUMPDEST SWAP3 POP POP DUP2 SWAP1 SSTORE POP DUP8 PUSH20 0xFFFFFFFFFFFFFFFFFFFFFFFFFFFFFFFFFFFFFFFF AND DUP10 PUSH20 0xFFFFFFFFFFFFFFFFFFFFFFFFFFFFFFFFFFFFFFFF AND PUSH32 0xABECE5F4AED6CF1FAC4DDF8497567F25C27CA46BE2737E9DB8CC79679C3122D DUP5 PUSH1 0x40 MLOAD PUSH2 0xC31 SWAP2 SWAP1 PUSH2 0x1A48 JUMP JUMPDEST PUSH1 0x40 MLOAD DUP1 SWAP2 SUB SWAP1 LOG3 POP POP POP POP POP POP POP POP POP POP POP POP JUMP JUMPDEST PUSH1 0x0 PUSH20 0x5C69BEE701EF814A2B6A3EDD4B1652CB9CC5AA6F PUSH20 0xFFFFFFFFFFFFFFFFFFFFFFFFFFFFFFFFFFFFFFFF AND PUSH4 0xE6A43905 DUP6 DUP6 PUSH1 0x40 MLOAD DUP4 PUSH4 0xFFFFFFFF AND PUSH1 0xE0 SHL DUP2 MSTORE PUSH1 0x4 ADD PUSH2 0xC98 SWAP3 SWAP2 SWAP1 PUSH2 0x1563 JUMP JUMPDEST PUSH1 0x20 PUSH1 0x40 MLOAD DUP1 DUP4 SUB DUP2 DUP7 DUP1 EXTCODESIZE ISZERO DUP1 ISZERO PUSH2 0xCB0 JUMPI PUSH1 0x0 DUP1 REVERT JUMPDEST POP GAS STATICCALL ISZERO DUP1 ISZERO PUSH2 0xCC4 JUMPI RETURNDATASIZE PUSH1 0x0 DUP1 RETURNDATACOPY RETURNDATASIZE PUSH1 0x0 REVERT JUMPDEST POP POP POP POP PUSH1 0x40 MLOAD RETURNDATASIZE PUSH1 0x1F NOT PUSH1 0x1F DUP3 ADD AND DUP3 ADD DUP1 PUSH1 0x40 MSTORE POP DUP2 ADD SWAP1 PUSH2 0xCE8 SWAP2 SWAP1 PUSH2 0x15A1 JUMP JUMPDEST SWAP1 POP PUSH1 0x0 DUP1 DUP3 PUSH20 0xFFFFFFFFFFFFFFFFFFFFFFFFFFFFFFFFFFFFFFFF AND PUSH4 0x902F1AC PUSH1 0x40 MLOAD DUP2 PUSH4 0xFFFFFFFF AND PUSH1 0xE0 SHL DUP2 MSTORE PUSH1 0x4 ADD PUSH1 0x60 PUSH1 0x40 MLOAD DUP1 DUP4 SUB DUP2 DUP7 DUP1 EXTCODESIZE ISZERO DUP1 ISZERO PUSH2 0xD33 JUMPI PUSH1 0x0 DUP1 REVERT JUMPDEST POP GAS STATICCALL ISZERO DUP1 ISZERO PUSH2 0xD47 JUMPI RETURNDATASIZE PUSH1 0x0 DUP1 RETURNDATACOPY RETURNDATASIZE PUSH1 0x0 REVERT JUMPDEST POP POP POP POP PUSH1 0x40 MLOAD RETURNDATASIZE PUSH1 0x1F NOT PUSH1 0x1F DUP3 ADD AND DUP3 ADD DUP1 PUSH1 0x40 MSTORE POP DUP2 ADD SWAP1 PUSH2 0xD6B SWAP2 SWAP1 PUSH2 0x1AEC JUMP JUMPDEST POP PUSH14 0xFFFFFFFFFFFFFFFFFFFFFFFFFFFF AND SWAP2 POP PUSH14 0xFFFFFFFFFFFFFFFFFFFFFFFFFFFF AND SWAP2 POP PUSH1 0x0 DUP7 PUSH20 0xFFFFFFFFFFFFFFFFFFFFFFFFFFFFFFFFFFFFFFFF AND DUP5 PUSH20 0xFFFFFFFFFFFFFFFFFFFFFFFFFFFFFFFFFFFFFFFF AND PUSH4 0xDFE1681 PUSH1 0x40 MLOAD DUP2 PUSH4 0xFFFFFFFF AND PUSH1 0xE0 SHL DUP2 MSTORE PUSH1 0x4 ADD PUSH1 0x20 PUSH1 0x40 MLOAD DUP1 DUP4 SUB DUP2 DUP7 DUP1 EXTCODESIZE ISZERO DUP1 ISZERO PUSH2 0xDEF JUMPI PUSH1 0x0 DUP1 REVERT JUMPDEST POP GAS STATICCALL ISZERO DUP1 ISZERO PUSH2 0xE03 JUMPI RETURNDATASIZE PUSH1 0x0 DUP1 RETURNDATACOPY RETURNDATASIZE PUSH1 0x0 REVERT JUMPDEST POP POP POP POP PUSH1 0x40 MLOAD RETURNDATASIZE PUSH1 0x1F NOT PUSH1 0x1F DUP3 ADD AND DUP3 ADD DUP1 PUSH1 0x40 MSTORE POP DUP2 ADD SWAP1 PUSH2 0xE27 SWAP2 SWAP1 PUSH2 0x15A1 JUMP JUMPDEST PUSH20 0xFFFFFFFFFFFFFFFFFFFFFFFFFFFFFFFFFFFFFFFF AND EQ ISZERO PUSH2 0xEAF JUMPI PUSH2 0xE4D DUP4 DUP7 PUSH2 0x140 JUMP JUMPDEST SWAP1 POP DUP1 DUP5 PUSH20 0xFFFFFFFFFFFFFFFFFFFFFFFFFFFFFFFFFFFFFFFF AND DUP9 PUSH20 0xFFFFFFFFFFFFFFFFFFFFFFFFFFFFFFFFFFFFFFFF AND PUSH32 0x320244947B776B8F8F9E298E95E85722C190EE3D524FAAE6577627E1D1BB5999 PUSH1 0x40 MLOAD PUSH1 0x40 MLOAD DUP1 SWAP2 SUB SWAP1 LOG4 PUSH2 0xF17 JUMP JUMPDEST PUSH2 0xEB9 DUP3 DUP7 PUSH2 0x140 JUMP JUMPDEST SWAP1 POP DUP1 DUP5 PUSH20 0xFFFFFFFFFFFFFFFFFFFFFFFFFFFFFFFFFFFFFFFF AND DUP9 PUSH20 0xFFFFFFFFFFFFFFFFFFFFFFFFFFFFFFFFFFFFFFFF AND PUSH32 0x320244947B776B8F8F9E298E95E85722C190EE3D524FAAE6577627E1D1BB5999 PUSH1 0x40 MLOAD PUSH1 0x40 MLOAD DUP1 SWAP2 SUB SWAP1 LOG4 JUMPDEST POP POP POP POP POP POP POP JUMP JUMPDEST PUSH1 0x0 PUSH1 0x3 DUP3 GT ISZERO PUSH2 0xF87 JUMPI DUP2 SWAP1 POP PUSH1 0x0 PUSH1 0x1 PUSH1 0x2 DUP5 PUSH2 0xF3F SWAP2 SWAP1 PUSH2 0x1523 JUMP JUMPDEST PUSH2 0xF49 SWAP2 SWAP1 PUSH2 0x146A JUMP JUMPDEST SWAP1 POP JUMPDEST DUP2 DUP2 LT ISZERO PUSH2 0xF81 JUMPI DUP1 SWAP2 POP PUSH1 0x2 DUP2 DUP3 DUP6 PUSH2 0xF66 SWAP2 SWAP1 PUSH2 0x1523 JUMP JUMPDEST PUSH2 0xF70 SWAP2 SWAP1 PUSH2 0x146A JUMP JUMPDEST PUSH2 0xF7A SWAP2 SWAP1 PUSH2 0x1523 JUMP JUMPDEST SWAP1 POP PUSH2 0xF4C JUMP JUMPDEST POP PUSH2 0xF95 JUMP JUMPDEST PUSH1 0x0 DUP3 EQ PUSH2 0xF94 JUMPI PUSH1 0x1 SWAP1 POP JUMPDEST JUMPDEST SWAP2 SWAP1 POP JUMP JUMPDEST DUP3 DUP1 SLOAD DUP3 DUP3 SSTORE SWAP1 PUSH1 0x0 MSTORE PUSH1 0x20 PUSH1 0x0 KECCAK256 SWAP1 DUP2 ADD SWAP3 DUP3 ISZERO PUSH2 0xFD6 JUMPI SWAP2 PUSH1 0x20 MUL DUP3 ADD JUMPDEST DUP3 DUP2 GT ISZERO PUSH2 0xFD5 JUMPI DUP3 MLOAD DUP3 SSTORE SWAP2 PUSH1 0x20 ADD SWAP2 SWAP1 PUSH1 0x1 ADD SWAP1 PUSH2 0xFBA JUMP JUMPDEST JUMPDEST POP SWAP1 POP PUSH2 0xFE3 SWAP2 SWAP1 PUSH2 0xFE7 JUMP JUMPDEST POP SWAP1 JUMP JUMPDEST JUMPDEST DUP1 DUP3 GT ISZERO PUSH2 0x1000 JUMPI PUSH1 0x0 DUP2 PUSH1 0x0 SWAP1 SSTORE POP PUSH1 0x1 ADD PUSH2 0xFE8 JUMP JUMPDEST POP SWAP1 JUMP JUMPDEST PUSH1 0x0 PUSH1 0x40 MLOAD SWAP1 POP SWAP1 JUMP JUMPDEST PUSH1 0x0 DUP1 REVERT JUMPDEST PUSH1 0x0 DUP1 REVERT JUMPDEST PUSH1 0x0 PUSH20 0xFFFFFFFFFFFFFFFFFFFFFFFFFFFFFFFFFFFFFFFF DUP3 AND SWAP1 POP SWAP2 SWAP1 POP JUMP JUMPDEST PUSH1 0x0 PUSH2 0x1043 DUP3 PUSH2 0x1018 JUMP JUMPDEST SWAP1 POP SWAP2 SWAP1 POP JUMP JUMPDEST PUSH2 0x1053 DUP2 PUSH2 0x1038 JUMP JUMPDEST DUP2 EQ PUSH2 0x105E JUMPI PUSH1 0x0 DUP1 REVERT JUMPDEST POP JUMP JUMPDEST PUSH1 0x0 DUP2 CALLDATALOAD SWAP1 POP PUSH2 0x1070 DUP2 PUSH2 0x104A JUMP JUMPDEST SWAP3 SWAP2 POP POP JUMP JUMPDEST PUSH1 0x0 DUP1 PUSH1 0x0 PUSH1 0x60 DUP5 DUP7 SUB SLT ISZERO PUSH2 0x108F JUMPI PUSH2 0x108E PUSH2 0x100E JUMP JUMPDEST JUMPDEST PUSH1 0x0 PUSH2 0x109D DUP7 DUP3 DUP8 ADD PUSH2 0x1061 JUMP JUMPDEST SWAP4 POP POP PUSH1 0x20 PUSH2 0x10AE DUP7 DUP3 DUP8 ADD PUSH2 0x1061 JUMP JUMPDEST SWAP3 POP POP PUSH1 0x40 PUSH2 0x10BF DUP7 DUP3 DUP8 ADD PUSH2 0x1061 JUMP JUMPDEST SWAP2 POP POP SWAP3 POP SWAP3 POP SWAP3 JUMP JUMPDEST PUSH1 0x0 DUP2 SWAP1 POP SWAP2 SWAP1 POP JUMP JUMPDEST PUSH2 0x10DC DUP2 PUSH2 0x10C9 JUMP JUMPDEST DUP2 EQ PUSH2 0x10E7 JUMPI PUSH1 0x0 DUP1 REVERT JUMPDEST POP JUMP JUMPDEST PUSH1 0x0 DUP2 CALLDATALOAD SWAP1 POP PUSH2 0x10F9 DUP2 PUSH2 0x10D3 JUMP JUMPDEST SWAP3 SWAP2 POP POP JUMP JUMPDEST PUSH1 0x0 DUP1 PUSH1 0x40 DUP4 DUP6 SUB SLT ISZERO PUSH2 0x1116 JUMPI PUSH2 0x1115 PUSH2 0x100E JUMP JUMPDEST JUMPDEST PUSH1 0x0 PUSH2 0x1124 DUP6 DUP3 DUP7 ADD PUSH2 0x10EA JUMP JUMPDEST SWAP3 POP POP PUSH1 0x20 PUSH2 0x1135 DUP6 DUP3 DUP7 ADD PUSH2 0x10EA JUMP JUMPDEST SWAP2 POP POP SWAP3 POP SWAP3 SWAP1 POP JUMP JUMPDEST PUSH2 0x1148 DUP2 PUSH2 0x10C9 JUMP JUMPDEST DUP3 MSTORE POP POP JUMP JUMPDEST PUSH1 0x0 PUSH1 0x20 DUP3 ADD SWAP1 POP PUSH2 0x1163 PUSH1 0x0 DUP4 ADD DUP5 PUSH2 0x113F JUMP JUMPDEST SWAP3 SWAP2 POP POP JUMP JUMPDEST PUSH1 0x0 DUP1 REVERT JUMPDEST PUSH1 0x0 PUSH1 0x1F NOT PUSH1 0x1F DUP4 ADD AND SWAP1 POP SWAP2 SWAP1 POP JUMP JUMPDEST PUSH32 0x4E487B7100000000000000000000000000000000000000000000000000000000 PUSH1 0x0 MSTORE PUSH1 0x41 PUSH1 0x4 MSTORE PUSH1 0x24 PUSH1 0x0 REVERT JUMPDEST PUSH2 0x11B7 DUP3 PUSH2 0x116E JUMP JUMPDEST DUP2 ADD DUP2 DUP2 LT PUSH8 0xFFFFFFFFFFFFFFFF DUP3 GT OR ISZERO PUSH2 0x11D6 JUMPI PUSH2 0x11D5 PUSH2 0x117F JUMP JUMPDEST JUMPDEST DUP1 PUSH1 0x40 MSTORE POP POP POP JUMP JUMPDEST PUSH1 0x0 PUSH2 0x11E9 PUSH2 0x1004 JUMP JUMPDEST SWAP1 POP PUSH2 0x11F5 DUP3 DUP3 PUSH2 0x11AE JUMP JUMPDEST SWAP2 SWAP1 POP JUMP JUMPDEST PUSH1 0x0 PUSH8 0xFFFFFFFFFFFFFFFF DUP3 GT ISZERO PUSH2 0x1215 JUMPI PUSH2 0x1214 PUSH2 0x117F JUMP JUMPDEST JUMPDEST PUSH1 0x20 DUP3 MUL SWAP1 POP PUSH1 0x20 DUP2 ADD SWAP1 POP SWAP2 SWAP1 POP JUMP JUMPDEST PUSH1 0x0 DUP1 REVERT JUMPDEST PUSH1 0x0 PUSH2 0x123E PUSH2 0x1239 DUP5 PUSH2 0x11FA JUMP JUMPDEST PUSH2 0x11DF JUMP JUMPDEST SWAP1 POP DUP1 DUP4 DUP3 MSTORE PUSH1 0x20 DUP3 ADD SWAP1 POP PUSH1 0x20 DUP5 MUL DUP4 ADD DUP6 DUP2 GT ISZERO PUSH2 0x1261 JUMPI PUSH2 0x1260 PUSH2 0x1226 JUMP JUMPDEST JUMPDEST DUP4 JUMPDEST DUP2 DUP2 LT ISZERO PUSH2 0x128A JUMPI DUP1 PUSH2 0x1276 DUP9 DUP3 PUSH2 0x10EA JUMP JUMPDEST DUP5 MSTORE PUSH1 0x20 DUP5 ADD SWAP4 POP POP PUSH1 0x20 DUP2 ADD SWAP1 POP PUSH2 0x1263 JUMP JUMPDEST POP POP POP SWAP4 SWAP3 POP POP POP JUMP JUMPDEST PUSH1 0x0 DUP3 PUSH1 0x1F DUP4 ADD SLT PUSH2 0x12A9 JUMPI PUSH2 0x12A8 PUSH2 0x1169 JUMP JUMPDEST JUMPDEST DUP2 CALLDATALOAD PUSH2 0x12B9 DUP5 DUP3 PUSH1 0x20 DUP7 ADD PUSH2 0x122B JUMP JUMPDEST SWAP2 POP POP SWAP3 SWAP2 POP POP JUMP JUMPDEST PUSH1 0x0 DUP1 PUSH1 0x0 DUP1 PUSH1 0x80 DUP6 DUP8 SUB SLT ISZERO PUSH2 0x12DC JUMPI PUSH2 0x12DB PUSH2 0x100E JUMP JUMPDEST JUMPDEST PUSH1 0x0 PUSH2 0x12EA DUP8 DUP3 DUP9 ADD PUSH2 0x1061 JUMP JUMPDEST SWAP5 POP POP PUSH1 0x20 PUSH2 0x12FB DUP8 DUP3 DUP9 ADD PUSH2 0x1061 JUMP JUMPDEST SWAP4 POP POP PUSH1 0x40 DUP6 ADD CALLDATALOAD PUSH8 0xFFFFFFFFFFFFFFFF DUP2 GT ISZERO PUSH2 0x131C JUMPI PUSH2 0x131B PUSH2 0x1013 JUMP JUMPDEST JUMPDEST PUSH2 0x1328 DUP8 DUP3 DUP9 ADD PUSH2 0x1294 JUMP JUMPDEST SWAP3 POP POP PUSH1 0x60 PUSH2 0x1339 DUP8 DUP3 DUP9 ADD PUSH2 0x1061 JUMP JUMPDEST SWAP2 POP POP SWAP3 SWAP6 SWAP2 SWAP5 POP SWAP3 POP JUMP JUMPDEST PUSH1 0x0 DUP1 PUSH1 0x0 PUSH1 0x60 DUP5 DUP7 SUB SLT ISZERO PUSH2 0x135E JUMPI PUSH2 0x135D PUSH2 0x100E JUMP JUMPDEST JUMPDEST PUSH1 0x0 PUSH2 0x136C DUP7 DUP3 DUP8 ADD PUSH2 0x1061 JUMP JUMPDEST SWAP4 POP POP PUSH1 0x20 PUSH2 0x137D DUP7 DUP3 DUP8 ADD PUSH2 0x1061 JUMP JUMPDEST SWAP3 POP POP PUSH1 0x40 PUSH2 0x138E DUP7 DUP3 DUP8 ADD PUSH2 0x10EA JUMP JUMPDEST SWAP2 POP POP SWAP3 POP SWAP3 POP SWAP3 JUMP JUMPDEST PUSH32 0x4E487B7100000000000000000000000000000000000000000000000000000000 PUSH1 0x0 MSTORE PUSH1 0x11 PUSH1 0x4 MSTORE PUSH1 0x24 PUSH1 0x0 REVERT JUMPDEST PUSH1 0x0 PUSH2 0x13D2 DUP3 PUSH2 0x10C9 JUMP JUMPDEST SWAP2 POP PUSH32 0xFFFFFFFFFFFFFFFFFFFFFFFFFFFFFFFFFFFFFFFFFFFFFFFFFFFFFFFFFFFFFFFF DUP3 EQ ISZERO PUSH2 0x1405 JUMPI PUSH2 0x1404 PUSH2 0x1398 JUMP JUMPDEST JUMPDEST PUSH1 0x1 DUP3 ADD SWAP1 POP SWAP2 SWAP1 POP JUMP JUMPDEST PUSH1 0x0 PUSH2 0x141B DUP3 PUSH2 0x10C9 JUMP JUMPDEST SWAP2 POP PUSH2 0x1426 DUP4 PUSH2 0x10C9 JUMP JUMPDEST SWAP3 POP DUP2 PUSH32 0xFFFFFFFFFFFFFFFFFFFFFFFFFFFFFFFFFFFFFFFFFFFFFFFFFFFFFFFFFFFFFFFF DIV DUP4 GT DUP3 ISZERO ISZERO AND ISZERO PUSH2 0x145F JUMPI PUSH2 0x145E PUSH2 0x1398 JUMP JUMPDEST JUMPDEST DUP3 DUP3 MUL SWAP1 POP SWAP3 SWAP2 POP POP JUMP JUMPDEST PUSH1 0x0 PUSH2 0x1475 DUP3 PUSH2 0x10C9 JUMP JUMPDEST SWAP2 POP PUSH2 0x1480 DUP4 PUSH2 0x10C9 JUMP JUMPDEST SWAP3 POP DUP3 PUSH32 0xFFFFFFFFFFFFFFFFFFFFFFFFFFFFFFFFFFFFFFFFFFFFFFFFFFFFFFFFFFFFFFFF SUB DUP3 GT ISZERO PUSH2 0x14B5 JUMPI PUSH2 0x14B4 PUSH2 0x1398 JUMP JUMPDEST JUMPDEST DUP3 DUP3 ADD SWAP1 POP SWAP3 SWAP2 POP POP JUMP JUMPDEST PUSH1 0x0 PUSH2 0x14CB DUP3 PUSH2 0x10C9 JUMP JUMPDEST SWAP2 POP PUSH2 0x14D6 DUP4 PUSH2 0x10C9 JUMP JUMPDEST SWAP3 POP DUP3 DUP3 LT ISZERO PUSH2 0x14E9 JUMPI PUSH2 0x14E8 PUSH2 0x1398 JUMP JUMPDEST JUMPDEST DUP3 DUP3 SUB SWAP1 POP SWAP3 SWAP2 POP POP JUMP JUMPDEST PUSH32 0x4E487B7100000000000000000000000000000000000000000000000000000000 PUSH1 0x0 MSTORE PUSH1 0x12 PUSH1 0x4 MSTORE PUSH1 0x24 PUSH1 0x0 REVERT JUMPDEST PUSH1 0x0 PUSH2 0x152E DUP3 PUSH2 0x10C9 JUMP JUMPDEST SWAP2 POP PUSH2 0x1539 DUP4 PUSH2 0x10C9 JUMP JUMPDEST SWAP3 POP DUP3 PUSH2 0x1549 JUMPI PUSH2 0x1548 PUSH2 0x14F4 JUMP JUMPDEST JUMPDEST DUP3 DUP3 DIV SWAP1 POP SWAP3 SWAP2 POP POP JUMP JUMPDEST PUSH2 0x155D DUP2 PUSH2 0x1038 JUMP JUMPDEST DUP3 MSTORE POP POP JUMP JUMPDEST PUSH1 0x0 PUSH1 0x40 DUP3 ADD SWAP1 POP PUSH2 0x1578 PUSH1 0x0 DUP4 ADD DUP6 PUSH2 0x1554 JUMP JUMPDEST PUSH2 0x1585 PUSH1 0x20 DUP4 ADD DUP5 PUSH2 0x1554 JUMP JUMPDEST SWAP4 SWAP3 POP POP POP JUMP JUMPDEST PUSH1 0x0 DUP2 MLOAD SWAP1 POP PUSH2 0x159B DUP2 PUSH2 0x104A JUMP JUMPDEST SWAP3 SWAP2 POP POP JUMP JUMPDEST PUSH1 0x0 PUSH1 0x20 DUP3 DUP5 SUB SLT ISZERO PUSH2 0x15B7 JUMPI PUSH2 0x15B6 PUSH2 0x100E JUMP JUMPDEST JUMPDEST PUSH1 0x0 PUSH2 0x15C5 DUP5 DUP3 DUP6 ADD PUSH2 0x158C JUMP JUMPDEST SWAP2 POP POP SWAP3 SWAP2 POP POP JUMP JUMPDEST PUSH1 0x0 DUP3 DUP3 MSTORE PUSH1 0x20 DUP3 ADD SWAP1 POP SWAP3 SWAP2 POP POP JUMP JUMPDEST PUSH32 0x5061697220646F6573206E6F7420657869737400000000000000000000000000 PUSH1 0x0 DUP3 ADD MSTORE POP JUMP JUMPDEST PUSH1 0x0 PUSH2 0x1615 PUSH1 0x13 DUP4 PUSH2 0x15CE JUMP JUMPDEST SWAP2 POP PUSH2 0x1620 DUP3 PUSH2 0x15DF JUMP JUMPDEST PUSH1 0x20 DUP3 ADD SWAP1 POP SWAP2 SWAP1 POP JUMP JUMPDEST PUSH1 0x0 PUSH1 0x20 DUP3 ADD SWAP1 POP DUP2 DUP2 SUB PUSH1 0x0 DUP4 ADD MSTORE PUSH2 0x1644 DUP2 PUSH2 0x1608 JUMP JUMPDEST SWAP1 POP SWAP2 SWAP1 POP JUMP JUMPDEST PUSH32 0x4E487B7100000000000000000000000000000000000000000000000000000000 PUSH1 0x0 MSTORE PUSH1 0x32 PUSH1 0x4 MSTORE PUSH1 0x24 PUSH1 0x0 REVERT JUMPDEST PUSH1 0x0 PUSH1 0x60 DUP3 ADD SWAP1 POP PUSH2 0x168F PUSH1 0x0 DUP4 ADD DUP7 PUSH2 0x1554 JUMP JUMPDEST PUSH2 0x169C PUSH1 0x20 DUP4 ADD DUP6 PUSH2 0x1554 JUMP JUMPDEST PUSH2 0x16A9 PUSH1 0x40 DUP4 ADD DUP5 PUSH2 0x113F JUMP JUMPDEST SWAP5 SWAP4 POP POP POP POP JUMP JUMPDEST PUSH1 0x0 DUP2 ISZERO ISZERO SWAP1 POP SWAP2 SWAP1 POP JUMP JUMPDEST PUSH2 0x16C6 DUP2 PUSH2 0x16B1 JUMP JUMPDEST DUP2 EQ PUSH2 0x16D1 JUMPI PUSH1 0x0 DUP1 REVERT JUMPDEST POP JUMP JUMPDEST PUSH1 0x0 DUP2 MLOAD SWAP1 POP PUSH2 0x16E3 DUP2 PUSH2 0x16BD JUMP JUMPDEST SWAP3 SWAP2 POP POP JUMP JUMPDEST PUSH1 0x0 PUSH1 0x20 DUP3 DUP5 SUB SLT ISZERO PUSH2 0x16FF JUMPI PUSH2 0x16FE PUSH2 0x100E JUMP JUMPDEST JUMPDEST PUSH1 0x0 PUSH2 0x170D DUP5 DUP3 DUP6 ADD PUSH2 0x16D4 JUMP JUMPDEST SWAP2 POP POP SWAP3 SWAP2 POP POP JUMP JUMPDEST PUSH32 0x4465706F73697420666F7220746F6B656E2041206661696C6564000000000000 PUSH1 0x0 DUP3 ADD MSTORE POP JUMP JUMPDEST PUSH1 0x0 PUSH2 0x174C PUSH1 0x1A DUP4 PUSH2 0x15CE JUMP JUMPDEST SWAP2 POP PUSH2 0x1757 DUP3 PUSH2 0x1716 JUMP JUMPDEST PUSH1 0x20 DUP3 ADD SWAP1 POP SWAP2 SWAP1 POP JUMP JUMPDEST PUSH1 0x0 PUSH1 0x20 DUP3 ADD SWAP1 POP DUP2 DUP2 SUB PUSH1 0x0 DUP4 ADD MSTORE PUSH2 0x177B DUP2 PUSH2 0x173F JUMP JUMPDEST SWAP1 POP SWAP2 SWAP1 POP JUMP JUMPDEST PUSH32 0x4465706F73697420666F7220746F6B656E2042206661696C6564000000000000 PUSH1 0x0 DUP3 ADD MSTORE POP JUMP JUMPDEST PUSH1 0x0 PUSH2 0x17B8 PUSH1 0x1A DUP4 PUSH2 0x15CE JUMP JUMPDEST SWAP2 POP PUSH2 0x17C3 DUP3 PUSH2 0x1782 JUMP JUMPDEST PUSH1 0x20 DUP3 ADD SWAP1 POP SWAP2 SWAP1 POP JUMP JUMPDEST PUSH1 0x0 PUSH1 0x20 DUP3 ADD SWAP1 POP DUP2 DUP2 SUB PUSH1 0x0 DUP4 ADD MSTORE PUSH2 0x17E7 DUP2 PUSH2 0x17AB JUMP JUMPDEST SWAP1 POP SWAP2 SWAP1 POP JUMP JUMPDEST PUSH1 0x0 PUSH1 0x20 DUP3 ADD SWAP1 POP PUSH2 0x1803 PUSH1 0x0 DUP4 ADD DUP5 PUSH2 0x1554 JUMP JUMPDEST SWAP3 SWAP2 POP POP JUMP JUMPDEST PUSH1 0x0 DUP2 MLOAD SWAP1 POP PUSH2 0x1818 DUP2 PUSH2 0x10D3 JUMP JUMPDEST SWAP3 SWAP2 POP POP JUMP JUMPDEST PUSH1 0x0 PUSH1 0x20 DUP3 DUP5 SUB SLT ISZERO PUSH2 0x1834 JUMPI PUSH2 0x1833 PUSH2 0x100E JUMP JUMPDEST JUMPDEST PUSH1 0x0 PUSH2 0x1842 DUP5 DUP3 DUP6 ADD PUSH2 0x1809 JUMP JUMPDEST SWAP2 POP POP SWAP3 SWAP2 POP POP JUMP JUMPDEST PUSH1 0x0 PUSH1 0x40 DUP3 ADD SWAP1 POP PUSH2 0x1860 PUSH1 0x0 DUP4 ADD DUP6 PUSH2 0x1554 JUMP JUMPDEST PUSH2 0x186D PUSH1 0x20 DUP4 ADD DUP5 PUSH2 0x113F JUMP JUMPDEST SWAP4 SWAP3 POP POP POP JUMP JUMPDEST PUSH1 0x0 DUP2 SWAP1 POP SWAP2 SWAP1 POP JUMP JUMPDEST PUSH1 0x0 DUP2 SWAP1 POP SWAP2 SWAP1 POP JUMP JUMPDEST PUSH1 0x0 PUSH2 0x18A3 PUSH2 0x189E PUSH2 0x1899 DUP5 PUSH2 0x1874 JUMP JUMPDEST PUSH2 0x187E JUMP JUMPDEST PUSH2 0x10C9 JUMP JUMPDEST SWAP1 POP SWAP2 SWAP1 POP JUMP JUMPDEST PUSH2 0x18B3 DUP2 PUSH2 0x1888 JUMP JUMPDEST DUP3 MSTORE POP POP JUMP JUMPDEST PUSH1 0x0 PUSH2 0x100 DUP3 ADD SWAP1 POP PUSH2 0x18CF PUSH1 0x0 DUP4 ADD DUP12 PUSH2 0x1554 JUMP JUMPDEST PUSH2 0x18DC PUSH1 0x20 DUP4 ADD DUP11 PUSH2 0x1554 JUMP JUMPDEST PUSH2 0x18E9 PUSH1 0x40 DUP4 ADD DUP10 PUSH2 0x113F JUMP JUMPDEST PUSH2 0x18F6 PUSH1 0x60 DUP4 ADD DUP9 PUSH2 0x113F JUMP JUMPDEST PUSH2 0x1903 PUSH1 0x80 DUP4 ADD DUP8 PUSH2 0x18AA JUMP JUMPDEST PUSH2 0x1910 PUSH1 0xA0 DUP4 ADD DUP7 PUSH2 0x18AA JUMP JUMPDEST PUSH2 0x191D PUSH1 0xC0 DUP4 ADD DUP6 PUSH2 0x1554 JUMP JUMPDEST PUSH2 0x192A PUSH1 0xE0 DUP4 ADD DUP5 PUSH2 0x113F JUMP JUMPDEST SWAP10 SWAP9 POP POP POP POP POP POP POP POP POP JUMP JUMPDEST PUSH1 0x0 DUP1 PUSH1 0x0 PUSH1 0x60 DUP5 DUP7 SUB SLT ISZERO PUSH2 0x1950 JUMPI PUSH2 0x194F PUSH2 0x100E JUMP JUMPDEST JUMPDEST PUSH1 0x0 PUSH2 0x195E DUP7 DUP3 DUP8 ADD PUSH2 0x1809 JUMP JUMPDEST SWAP4 POP POP PUSH1 0x20 PUSH2 0x196F DUP7 DUP3 DUP8 ADD PUSH2 0x1809 JUMP JUMPDEST SWAP3 POP POP PUSH1 0x40 PUSH2 0x1980 DUP7 DUP3 DUP8 ADD PUSH2 0x1809 JUMP JUMPDEST SWAP2 POP POP SWAP3 POP SWAP3 POP SWAP3 JUMP JUMPDEST PUSH1 0x0 DUP2 MLOAD SWAP1 POP SWAP2 SWAP1 POP JUMP JUMPDEST PUSH1 0x0 DUP3 DUP3 MSTORE PUSH1 0x20 DUP3 ADD SWAP1 POP SWAP3 SWAP2 POP POP JUMP JUMPDEST PUSH1 0x0 DUP2 SWAP1 POP PUSH1 0x20 DUP3 ADD SWAP1 POP SWAP2 SWAP1 POP JUMP JUMPDEST PUSH2 0x19BF DUP2 PUSH2 0x10C9 JUMP JUMPDEST DUP3 MSTORE POP POP JUMP JUMPDEST PUSH1 0x0 PUSH2 0x19D1 DUP4 DUP4 PUSH2 0x19B6 JUMP JUMPDEST PUSH1 0x20 DUP4 ADD SWAP1 POP SWAP3 SWAP2 POP POP JUMP JUMPDEST PUSH1 0x0 PUSH1 0x20 DUP3 ADD SWAP1 POP SWAP2 SWAP1 POP JUMP JUMPDEST PUSH1 0x0 PUSH2 0x19F5 DUP3 PUSH2 0x198A JUMP JUMPDEST PUSH2 0x19FF DUP2 DUP6 PUSH2 0x1995 JUMP JUMPDEST SWAP4 POP PUSH2 0x1A0A DUP4 PUSH2 0x19A6 JUMP JUMPDEST DUP1 PUSH1 0x0 JUMPDEST DUP4 DUP2 LT ISZERO PUSH2 0x1A3B JUMPI DUP2 MLOAD PUSH2 0x1A22 DUP9 DUP3 PUSH2 0x19C5 JUMP JUMPDEST SWAP8 POP PUSH2 0x1A2D DUP4 PUSH2 0x19DD JUMP JUMPDEST SWAP3 POP POP PUSH1 0x1 DUP2 ADD SWAP1 POP PUSH2 0x1A0E JUMP JUMPDEST POP DUP6 SWAP4 POP POP POP POP SWAP3 SWAP2 POP POP JUMP JUMPDEST PUSH1 0x0 PUSH1 0x20 DUP3 ADD SWAP1 POP DUP2 DUP2 SUB PUSH1 0x0 DUP4 ADD MSTORE PUSH2 0x1A62 DUP2 DUP5 PUSH2 0x19EA JUMP JUMPDEST SWAP1 POP SWAP3 SWAP2 POP POP JUMP JUMPDEST PUSH1 0x0 PUSH14 0xFFFFFFFFFFFFFFFFFFFFFFFFFFFF DUP3 AND SWAP1 POP SWAP2 SWAP1 POP JUMP JUMPDEST PUSH2 0x1A8D DUP2 PUSH2 0x1A6A JUMP JUMPDEST DUP2 EQ PUSH2 0x1A98 JUMPI PUSH1 0x0 DUP1 REVERT JUMPDEST POP JUMP JUMPDEST PUSH1 0x0 DUP2 MLOAD SWAP1 POP PUSH2 0x1AAA DUP2 PUSH2 0x1A84 JUMP JUMPDEST SWAP3 SWAP2 POP POP JUMP JUMPDEST PUSH1 0x0 PUSH4 0xFFFFFFFF DUP3 AND SWAP1 POP SWAP2 SWAP1 POP JUMP JUMPDEST PUSH2 0x1AC9 DUP2 PUSH2 0x1AB0 JUMP JUMPDEST DUP2 EQ PUSH2 0x1AD4 JUMPI PUSH1 0x0 DUP1 REVERT JUMPDEST POP JUMP JUMPDEST PUSH1 0x0 DUP2 MLOAD SWAP1 POP PUSH2 0x1AE6 DUP2 PUSH2 0x1AC0 JUMP JUMPDEST SWAP3 SWAP2 POP POP JUMP JUMPDEST PUSH1 0x0 DUP1 PUSH1 0x0 PUSH1 0x60 DUP5 DUP7 SUB SLT ISZERO PUSH2 0x1B05 JUMPI PUSH2 0x1B04 PUSH2 0x100E JUMP JUMPDEST JUMPDEST PUSH1 0x0 PUSH2 0x1B13 DUP7 DUP3 DUP8 ADD PUSH2 0x1A9B JUMP JUMPDEST SWAP4 POP POP PUSH1 0x20 PUSH2 0x1B24 DUP7 DUP3 DUP8 ADD PUSH2 0x1A9B JUMP JUMPDEST SWAP3 POP POP PUSH1 0x40 PUSH2 0x1B35 DUP7 DUP3 DUP8 ADD PUSH2 0x1AD7 JUMP JUMPDEST SWAP2 POP POP SWAP3 POP SWAP3 POP SWAP3 JUMP INVALID LOG2 PUSH5 0x6970667358 0x22 SLT KECCAK256 0xD4 JUMPI SWAP1 0xD9 0xB1 PUSH10 0x36C5019A0495E114D9E1 ADD CODECOPY 0xE9 0xDC 0xF8 0xD5 SELFBALANCE PUSH4 0x8BFA7999 PUSH31 0x52D7F064736F6C634300080900330000000000000000000000000000000000 "},"methodIdentifiers":{"addLiquidity(address,address,uint256[],address)":"61e4290d","calculateOptimalLiquidity(address,address,uint256)":"b1ec2387","getSwapAmount(uint256,uint256)":"368519f3","removeLiquidity(address,address,address)":"3480c458"}}}}}