{
  "_format": "hh-sol-artifact-1",
  "contractName": "MonoLiquidity",
  "sourceName": "contracts/MonoLiquidity.sol",
  "abi": [
    {
      "anonymous": false,
      "inputs": [
        {
          "indexed": true,
          "internalType": "address",
          "name": "tokenA",
          "type": "address"
        },
        {
          "indexed": true,
          "internalType": "address",
          "name": "pair",
          "type": "address"
        },
        {
          "indexed": true,
          "internalType": "uint256",
          "name": "amount",
          "type": "uint256"
        }
      ],
      "name": "CalculatedSwapAmount",
      "type": "event"
    },
    {
      "anonymous": false,
      "inputs": [
        {
          "indexed": true,
          "internalType": "address",
          "name": "provider",
          "type": "address"
        },
        {
          "indexed": true,
          "internalType": "address",
          "name": "liquidityPool",
          "type": "address"
        },
        {
          "indexed": false,
          "internalType": "uint256[]",
          "name": "amountsProvided",
          "type": "uint256[]"
        }
      ],
      "name": "LiquidityProvided",
      "type": "event"
    },
    {
      "anonymous": false,
      "inputs": [
        {
          "indexed": true,
          "internalType": "address",
          "name": "provider",
          "type": "address"
        },
        {
          "indexed": true,
          "internalType": "address",
          "name": "liquidityPool",
          "type": "address"
        },
        {
          "indexed": false,
          "internalType": "uint256[]",
          "name": "amountsRemoved",
          "type": "uint256[]"
        }
      ],
      "name": "LiquidtyRemoved",
      "type": "event"
    },
    {
      "inputs": [
        {
          "internalType": "address",
          "name": "_tokenA",
          "type": "address"
        },
        {
          "internalType": "address",
          "name": "_tokenB",
          "type": "address"
        },
        {
          "internalType": "uint256[]",
          "name": "_amounts",
          "type": "uint256[]"
        },
        {
          "internalType": "address",
          "name": "_liquidityProvider",
          "type": "address"
        }
      ],
      "name": "addLiquidity",
      "outputs": [],
      "stateMutability": "nonpayable",
      "type": "function"
    },
    {
      "inputs": [
        {
          "internalType": "address",
          "name": "_tokenA",
          "type": "address"
        },
        {
          "internalType": "address",
          "name": "_tokenB",
          "type": "address"
        },
        {
          "internalType": "uint256",
          "name": "_amountA",
          "type": "uint256"
        }
      ],
      "name": "calculateOptimalLiquidity",
      "outputs": [],
      "stateMutability": "nonpayable",
      "type": "function"
    },
    {
      "inputs": [
        {
          "internalType": "uint256",
          "name": "r",
          "type": "uint256"
        },
        {
          "internalType": "uint256",
          "name": "a",
          "type": "uint256"
        }
      ],
      "name": "getSwapAmount",
      "outputs": [
        {
          "internalType": "uint256",
          "name": "",
          "type": "uint256"
        }
      ],
      "stateMutability": "pure",
      "type": "function"
    },
    {
      "inputs": [
        {
          "internalType": "address",
          "name": "_remover",
          "type": "address"
        },
        {
          "internalType": "address",
          "name": "_tokenA",
          "type": "address"
        },
        {
          "internalType": "address",
          "name": "_tokenB",
          "type": "address"
        }
      ],
      "name": "removeLiquidity",
      "outputs": [],
      "stateMutability": "nonpayable",
      "type": "function"
    }
  ],
  "bytecode": "0x608060405234801561001057600080fd5b50611b75806100206000396000f3fe608060405234801561001057600080fd5b506004361061004c5760003560e01c80633480c45814610051578063368519f31461006d57806361e4290d1461009d578063b1ec2387146100b9575b600080fd5b61006b60048036038101906100669190611076565b6100d5565b005b610087600480360381019061008291906110ff565b610140565b604051610094919061114e565b60405180910390f35b6100b760048036038101906100b291906112c2565b6101aa565b005b6100d360048036038101906100ce9190611345565b610c47565b005b60008060008573ffffffffffffffffffffffffffffffffffffffff1673ffffffffffffffffffffffffffffffffffffffff168152602001908152602001600020905060005b8180549050811015610139578080610131906113c7565b91505061011a565b5050505050565b60006107ca6107cd846101539190611410565b61018e623cda20856101659190611410565b623cda29876101749190611410565b61017e919061146a565b866101899190611410565b610f20565b61019891906114c0565b6101a29190611523565b905092915050565b6000735c69bee701ef814a2b6a3edd4b1652cb9cc5aa6f73ffffffffffffffffffffffffffffffffffffffff1663e6a4390586866040518363ffffffff1660e01b81526004016101fb929190611563565b60206040518083038186803b15801561021357600080fd5b505afa158015610227573d6000803e3d6000fd5b505050506040513d601f19601f8201168201806040525081019061024b91906115a1565b9050600073ffffffffffffffffffffffffffffffffffffffff168173ffffffffffffffffffffffffffffffffffffffff1614156102bd576040517f08c379a00000000000000000000000000000000000000000000000000000000081526004016102b49061162b565b60405180910390fd5b8473ffffffffffffffffffffffffffffffffffffffff166323b872dd3330866000815181106102ef576102ee61164b565b5b60200260200101516040518463ffffffff1660e01b81526004016103159392919061167a565b602060405180830381600087803b15801561032f57600080fd5b505af1158015610343573d6000803e3d6000fd5b505050506040513d601f19601f8201168201806040525081019061036791906116e9565b6103a6576040517f08c379a000000000000000000000000000000000000000000000000000000000815260040161039d90611762565b60405180910390fd5b8373ffffffffffffffffffffffffffffffffffffffff166323b872dd3330866001815181106103d8576103d761164b565b5b60200260200101516040518463ffffffff1660e01b81526004016103fe9392919061167a565b602060405180830381600087803b15801561041857600080fd5b505af115801561042c573d6000803e3d6000fd5b505050506040513d601f19601f8201168201806040525081019061045091906116e9565b61048f576040517f08c379a0000000000000000000000000000000000000000000000000000000008152600401610486906117ce565b60405180910390fd5b60008573ffffffffffffffffffffffffffffffffffffffff166370a08231306040518263ffffffff1660e01b81526004016104ca91906117ee565b60206040518083038186803b1580156104e257600080fd5b505afa1580156104f6573d6000803e3d6000fd5b505050506040513d601f19601f8201168201806040525081019061051a919061181e565b905060008573ffffffffffffffffffffffffffffffffffffffff166370a08231306040518263ffffffff1660e01b815260040161055791906117ee565b60206040518083038186803b15801561056f57600080fd5b505afa158015610583573d6000803e3d6000fd5b505050506040513d601f19601f820116820180604052508101906105a7919061181e565b90508673ffffffffffffffffffffffffffffffffffffffff1663095ea7b3737a250d5630b4cf539739df2c5dacb4c659f2488d846040518363ffffffff1660e01b81526004016105f892919061184b565b602060405180830381600087803b15801561061257600080fd5b505af1158015610626573d6000803e3d6000fd5b505050506040513d601f19601f8201168201806040525081019061064a91906116e9565b508573ffffffffffffffffffffffffffffffffffffffff1663095ea7b3737a250d5630b4cf539739df2c5dacb4c659f2488d836040518363ffffffff1660e01b815260040161069a92919061184b565b602060405180830381600087803b1580156106b457600080fd5b505af11580156106c8573d6000803e3d6000fd5b505050506040513d601f19601f820116820180604052508101906106ec91906116e9565b506000806000737a250d5630b4cf539739df2c5dacb4c659f2488d73ffffffffffffffffffffffffffffffffffffffff1663e8e337008b8b888860008030426040518963ffffffff1660e01b815260040161074e9897969594939291906118b9565b606060405180830381600087803b15801561076857600080fd5b505af115801561077c573d6000803e3d6000fd5b505050506040513d601f19601f820116820180604052508101906107a09190611937565b9250925092506000600267ffffffffffffffff8111156107c3576107c261117f565b5b6040519080825280602002602001820160405280156107f15781602001602082028036833780820191505090505b50905083816000815181106108095761080861164b565b5b602002602001018181525050828160018151811061082a5761082961164b565b5b60200260200101818152505060006040518060c001604052808d73ffffffffffffffffffffffffffffffffffffffff1681526020018c73ffffffffffffffffffffffffffffffffffffffff1681526020018973ffffffffffffffffffffffffffffffffffffffff1681526020018b81526020018381526020018481525090506000808a73ffffffffffffffffffffffffffffffffffffffff1673ffffffffffffffffffffffffffffffffffffffff16815260200190815260200160002081908060018154018082558091505060019003906000526020600020906006020160009091909190915060008201518160000160006101000a81548173ffffffffffffffffffffffffffffffffffffffff021916908373ffffffffffffffffffffffffffffffffffffffff16021790555060208201518160010160006101000a81548173ffffffffffffffffffffffffffffffffffffffff021916908373ffffffffffffffffffffffffffffffffffffffff16021790555060408201518160020160006101000a81548173ffffffffffffffffffffffffffffffffffffffff021916908373ffffffffffffffffffffffffffffffffffffffff1602179055506060820151816003019080519060200190610a02929190610f9a565b506080820151816004019080519060200190610a1f929190610f9a565b5060a08201518160050155505081600081518110610a4057610a3f61164b565b5b60200260200101518a600081518110610a5c57610a5b61164b565b5b6020026020010151610a6e91906114c0565b600160008b73ffffffffffffffffffffffffffffffffffffffff1673ffffffffffffffffffffffffffffffffffffffff16815260200190815260200160002060008e73ffffffffffffffffffffffffffffffffffffffff1673ffffffffffffffffffffffffffffffffffffffff1681526020019081526020016000206000828254610af9919061146a565b9250508190555081600181518110610b1457610b1361164b565b5b60200260200101518a600181518110610b3057610b2f61164b565b5b6020026020010151610b4291906114c0565b600160008b73ffffffffffffffffffffffffffffffffffffffff1673ffffffffffffffffffffffffffffffffffffffff16815260200190815260200160002060008e73ffffffffffffffffffffffffffffffffffffffff1673ffffffffffffffffffffffffffffffffffffffff1681526020019081526020016000206000828254610bcd919061146a565b925050819055508773ffffffffffffffffffffffffffffffffffffffff168973ffffffffffffffffffffffffffffffffffffffff167f0abece5f4aed6cf1fac4ddf8497567f25c27ca46be2737e9db8cc79679c3122d84604051610c319190611a48565b60405180910390a3505050505050505050505050565b6000735c69bee701ef814a2b6a3edd4b1652cb9cc5aa6f73ffffffffffffffffffffffffffffffffffffffff1663e6a4390585856040518363ffffffff1660e01b8152600401610c98929190611563565b60206040518083038186803b158015610cb057600080fd5b505afa158015610cc4573d6000803e3d6000fd5b505050506040513d601f19601f82011682018060405250810190610ce891906115a1565b90506000808273ffffffffffffffffffffffffffffffffffffffff16630902f1ac6040518163ffffffff1660e01b815260040160606040518083038186803b158015610d3357600080fd5b505afa158015610d47573d6000803e3d6000fd5b505050506040513d601f19601f82011682018060405250810190610d6b9190611aec565b506dffffffffffffffffffffffffffff1691506dffffffffffffffffffffffffffff16915060008673ffffffffffffffffffffffffffffffffffffffff168473ffffffffffffffffffffffffffffffffffffffff16630dfe16816040518163ffffffff1660e01b815260040160206040518083038186803b158015610def57600080fd5b505afa158015610e03573d6000803e3d6000fd5b505050506040513d601f19601f82011682018060405250810190610e2791906115a1565b73ffffffffffffffffffffffffffffffffffffffff161415610eaf57610e4d8386610140565b9050808473ffffffffffffffffffffffffffffffffffffffff168873ffffffffffffffffffffffffffffffffffffffff167f320244947b776b8f8f9e298e95e85722c190ee3d524faae6577627e1d1bb599960405160405180910390a4610f17565b610eb98286610140565b9050808473ffffffffffffffffffffffffffffffffffffffff168873ffffffffffffffffffffffffffffffffffffffff167f320244947b776b8f8f9e298e95e85722c190ee3d524faae6577627e1d1bb599960405160405180910390a45b50505050505050565b60006003821115610f875781905060006001600284610f3f9190611523565b610f49919061146a565b90505b81811015610f81578091506002818285610f669190611523565b610f70919061146a565b610f7a9190611523565b9050610f4c565b50610f95565b60008214610f9457600190505b5b919050565b828054828255906000526020600020908101928215610fd6579160200282015b82811115610fd5578251825591602001919060010190610fba565b5b509050610fe39190610fe7565b5090565b5b80821115611000576000816000905550600101610fe8565b5090565b6000604051905090565b600080fd5b600080fd5b600073ffffffffffffffffffffffffffffffffffffffff82169050919050565b600061104382611018565b9050919050565b61105381611038565b811461105e57600080fd5b50565b6000813590506110708161104a565b92915050565b60008060006060848603121561108f5761108e61100e565b5b600061109d86828701611061565b93505060206110ae86828701611061565b92505060406110bf86828701611061565b9150509250925092565b6000819050919050565b6110dc816110c9565b81146110e757600080fd5b50565b6000813590506110f9816110d3565b92915050565b600080604083850312156111165761111561100e565b5b6000611124858286016110ea565b9250506020611135858286016110ea565b9150509250929050565b611148816110c9565b82525050565b6000602082019050611163600083018461113f565b92915050565b600080fd5b6000601f19601f8301169050919050565b7f4e487b7100000000000000000000000000000000000000000000000000000000600052604160045260246000fd5b6111b78261116e565b810181811067ffffffffffffffff821117156111d6576111d561117f565b5b80604052505050565b60006111e9611004565b90506111f582826111ae565b919050565b600067ffffffffffffffff8211156112155761121461117f565b5b602082029050602081019050919050565b600080fd5b600061123e611239846111fa565b6111df565b9050808382526020820190506020840283018581111561126157611260611226565b5b835b8181101561128a578061127688826110ea565b845260208401935050602081019050611263565b5050509392505050565b600082601f8301126112a9576112a8611169565b5b81356112b984826020860161122b565b91505092915050565b600080600080608085870312156112dc576112db61100e565b5b60006112ea87828801611061565b94505060206112fb87828801611061565b935050604085013567ffffffffffffffff81111561131c5761131b611013565b5b61132887828801611294565b925050606061133987828801611061565b91505092959194509250565b60008060006060848603121561135e5761135d61100e565b5b600061136c86828701611061565b935050602061137d86828701611061565b925050604061138e868287016110ea565b9150509250925092565b7f4e487b7100000000000000000000000000000000000000000000000000000000600052601160045260246000fd5b60006113d2826110c9565b91507fffffffffffffffffffffffffffffffffffffffffffffffffffffffffffffffff82141561140557611404611398565b5b600182019050919050565b600061141b826110c9565b9150611426836110c9565b9250817fffffffffffffffffffffffffffffffffffffffffffffffffffffffffffffffff048311821515161561145f5761145e611398565b5b828202905092915050565b6000611475826110c9565b9150611480836110c9565b9250827fffffffffffffffffffffffffffffffffffffffffffffffffffffffffffffffff038211156114b5576114b4611398565b5b828201905092915050565b60006114cb826110c9565b91506114d6836110c9565b9250828210156114e9576114e8611398565b5b828203905092915050565b7f4e487b7100000000000000000000000000000000000000000000000000000000600052601260045260246000fd5b600061152e826110c9565b9150611539836110c9565b925082611549576115486114f4565b5b828204905092915050565b61155d81611038565b82525050565b60006040820190506115786000830185611554565b6115856020830184611554565b9392505050565b60008151905061159b8161104a565b92915050565b6000602082840312156115b7576115b661100e565b5b60006115c58482850161158c565b91505092915050565b600082825260208201905092915050565b7f5061697220646f6573206e6f7420657869737400000000000000000000000000600082015250565b60006116156013836115ce565b9150611620826115df565b602082019050919050565b6000602082019050818103600083015261164481611608565b9050919050565b7f4e487b7100000000000000000000000000000000000000000000000000000000600052603260045260246000fd5b600060608201905061168f6000830186611554565b61169c6020830185611554565b6116a9604083018461113f565b949350505050565b60008115159050919050565b6116c6816116b1565b81146116d157600080fd5b50565b6000815190506116e3816116bd565b92915050565b6000602082840312156116ff576116fe61100e565b5b600061170d848285016116d4565b91505092915050565b7f4465706f73697420666f7220746f6b656e2041206661696c6564000000000000600082015250565b600061174c601a836115ce565b915061175782611716565b602082019050919050565b6000602082019050818103600083015261177b8161173f565b9050919050565b7f4465706f73697420666f7220746f6b656e2042206661696c6564000000000000600082015250565b60006117b8601a836115ce565b91506117c382611782565b602082019050919050565b600060208201905081810360008301526117e7816117ab565b9050919050565b60006020820190506118036000830184611554565b92915050565b600081519050611818816110d3565b92915050565b6000602082840312156118345761183361100e565b5b600061184284828501611809565b91505092915050565b60006040820190506118606000830185611554565b61186d602083018461113f565b9392505050565b6000819050919050565b6000819050919050565b60006118a361189e61189984611874565b61187e565b6110c9565b9050919050565b6118b381611888565b82525050565b6000610100820190506118cf600083018b611554565b6118dc602083018a611554565b6118e9604083018961113f565b6118f6606083018861113f565b61190360808301876118aa565b61191060a08301866118aa565b61191d60c0830185611554565b61192a60e083018461113f565b9998505050505050505050565b6000806000606084860312156119505761194f61100e565b5b600061195e86828701611809565b935050602061196f86828701611809565b925050604061198086828701611809565b9150509250925092565b600081519050919050565b600082825260208201905092915050565b6000819050602082019050919050565b6119bf816110c9565b82525050565b60006119d183836119b6565b60208301905092915050565b6000602082019050919050565b60006119f58261198a565b6119ff8185611995565b9350611a0a836119a6565b8060005b83811015611a3b578151611a2288826119c5565b9750611a2d836119dd565b925050600181019050611a0e565b5085935050505092915050565b60006020820190508181036000830152611a6281846119ea565b905092915050565b60006dffffffffffffffffffffffffffff82169050919050565b611a8d81611a6a565b8114611a9857600080fd5b50565b600081519050611aaa81611a84565b92915050565b600063ffffffff82169050919050565b611ac981611ab0565b8114611ad457600080fd5b50565b600081519050611ae681611ac0565b92915050565b600080600060608486031215611b0557611b0461100e565b5b6000611b1386828701611a9b565b9350506020611b2486828701611a9b565b9250506040611b3586828701611ad7565b915050925092509256fea2646970667358221220d45790d9b16936c5019a0495e114d9e10139e9dcf8d547638bfa79997e52d7f064736f6c63430008090033",
  "linkReferences": {},
  "deployedLinkReferences": {}
}