{
  "_format": "hh-sol-artifact-1",
  "contractName": "MonoLiquidity",
  "sourceName": "contracts/MonoLiquidity.sol",
  "abi": [
    {
      "inputs": [],
      "stateMutability": "nonpayable",
      "type": "constructor"
    },
    {
      "anonymous": false,
      "inputs": [
        {
          "indexed": false,
          "internalType": "contract IERC20",
          "name": "sellToken",
          "type": "address"
        },
        {
          "indexed": false,
          "internalType": "contract IERC20",
          "name": "buyToken",
          "type": "address"
        },
        {
          "indexed": false,
          "internalType": "uint256",
          "name": "boughtAmount",
          "type": "uint256"
        }
      ],
      "name": "BoughtTokens",
      "type": "event"
    },
    {
      "anonymous": false,
      "inputs": [
        {
          "indexed": true,
          "internalType": "address",
          "name": "tokenA",
          "type": "address"
        },
        {
          "indexed": true,
          "internalType": "address",
          "name": "pair",
          "type": "address"
        },
        {
          "indexed": true,
          "internalType": "uint256",
          "name": "amount",
          "type": "uint256"
        },
        {
          "indexed": false,
          "internalType": "uint256",
          "name": "reserve0",
          "type": "uint256"
        },
        {
          "indexed": false,
          "internalType": "uint256",
          "name": "reserve1",
          "type": "uint256"
        }
      ],
      "name": "CalculatedSwapAmount",
      "type": "event"
    },
    {
      "anonymous": false,
      "inputs": [
        {
          "indexed": true,
          "internalType": "address",
          "name": "provider",
          "type": "address"
        },
        {
          "indexed": true,
          "internalType": "address",
          "name": "liquidityPool",
          "type": "address"
        },
        {
          "indexed": false,
          "internalType": "uint256[]",
          "name": "amountsProvided",
          "type": "uint256[]"
        }
      ],
      "name": "LiquidityProvided",
      "type": "event"
    },
    {
      "anonymous": false,
      "inputs": [
        {
          "indexed": true,
          "internalType": "address",
          "name": "remover",
          "type": "address"
        },
        {
          "indexed": true,
          "internalType": "address",
          "name": "liquidityPool",
          "type": "address"
        },
        {
          "indexed": false,
          "internalType": "uint256[]",
          "name": "amountsRemoved",
          "type": "uint256[]"
        }
      ],
      "name": "LiquidtyRemoved",
      "type": "event"
    },
    {
      "inputs": [
        {
          "internalType": "address",
          "name": "_tokenA",
          "type": "address"
        },
        {
          "internalType": "address",
          "name": "_tokenB",
          "type": "address"
        },
        {
          "internalType": "uint256[]",
          "name": "_amounts",
          "type": "uint256[]"
        },
        {
          "internalType": "address",
          "name": "_liquidityProvider",
          "type": "address"
        }
      ],
      "name": "addLiquidity",
      "outputs": [],
      "stateMutability": "payable",
      "type": "function"
    },
    {
      "inputs": [
        {
          "internalType": "address",
          "name": "_tokenA",
          "type": "address"
        },
        {
          "internalType": "address",
          "name": "_tokenB",
          "type": "address"
        },
        {
          "internalType": "uint256",
          "name": "_amountA",
          "type": "uint256"
        }
      ],
      "name": "calculateOptimalLiquidity",
      "outputs": [],
      "stateMutability": "nonpayable",
      "type": "function"
    },
    {
      "inputs": [],
      "name": "exchangeProxy",
      "outputs": [
        {
          "internalType": "address",
          "name": "",
          "type": "address"
        }
      ],
      "stateMutability": "view",
      "type": "function"
    },
    {
      "inputs": [
        {
          "internalType": "uint256",
          "name": "r",
          "type": "uint256"
        },
        {
          "internalType": "uint256",
          "name": "a",
          "type": "uint256"
        },
        {
          "internalType": "uint256",
          "name": "decimals",
          "type": "uint256"
        }
      ],
      "name": "getSwapAmount",
      "outputs": [
        {
          "internalType": "uint256",
          "name": "",
          "type": "uint256"
        }
      ],
      "stateMutability": "pure",
      "type": "function"
    },
    {
      "inputs": [
        {
          "internalType": "address",
          "name": "_remover",
          "type": "address"
        },
        {
          "internalType": "address",
          "name": "_tokenA",
          "type": "address"
        },
        {
          "internalType": "address",
          "name": "_tokenB",
          "type": "address"
        }
      ],
      "name": "removeLiquidity",
      "outputs": [],
      "stateMutability": "nonpayable",
      "type": "function"
    }
  ],
  "bytecode": "0x608060405273def1c0ded9bec7f1a1670819833240f027b25eff6000806101000a81548173ffffffffffffffffffffffffffffffffffffffff021916908373ffffffffffffffffffffffffffffffffffffffff16021790555034801561006457600080fd5b5033600160006101000a81548173ffffffffffffffffffffffffffffffffffffffff021916908373ffffffffffffffffffffffffffffffffffffffff1602179055506131bb806100b56000396000f3fe60806040526004361061004a5760003560e01c80633480c4581461004f57806345cf2ef61461007857806361e4290d146100b5578063b1ec2387146100d1578063c7c30be1146100fa575b600080fd5b34801561005b57600080fd5b506100766004803603810190610071919061227a565b610125565b005b34801561008457600080fd5b5061009f600480360381019061009a9190612303565b61107b565b6040516100ac9190612365565b60405180910390f35b6100cf60048036038101906100ca91906124d9565b61112e565b005b3480156100dd57600080fd5b506100f860048036038101906100f3919061255c565b611cd0565b005b34801561010657600080fd5b5061010f61204b565b60405161011c91906125be565b60405180910390f35b6000735c69bee701ef814a2b6a3edd4b1652cb9cc5aa6f73ffffffffffffffffffffffffffffffffffffffff1663e6a4390584846040518363ffffffff1660e01b81526004016101769291906125d9565b60206040518083038186803b15801561018e57600080fd5b505afa1580156101a2573d6000803e3d6000fd5b505050506040513d601f19601f820116820180604052508101906101c69190612617565b90506000600260008673ffffffffffffffffffffffffffffffffffffffff1673ffffffffffffffffffffffffffffffffffffffff168152602001908152602001600020905060008019905060005b828054905081101561040e57600083828154811061023557610234612644565b5b906000526020600020906006020190508673ffffffffffffffffffffffffffffffffffffffff168160000160009054906101000a900473ffffffffffffffffffffffffffffffffffffffff1673ffffffffffffffffffffffffffffffffffffffff161480156102f357508573ffffffffffffffffffffffffffffffffffffffff168160010160009054906101000a900473ffffffffffffffffffffffffffffffffffffffff1673ffffffffffffffffffffffffffffffffffffffff16145b80156103ec5750735c69bee701ef814a2b6a3edd4b1652cb9cc5aa6f73ffffffffffffffffffffffffffffffffffffffff1663e6a4390588886040518363ffffffff1660e01b81526004016103499291906125d9565b60206040518083038186803b15801561036157600080fd5b505afa158015610375573d6000803e3d6000fd5b505050506040513d601f19601f820116820180604052508101906103999190612617565b73ffffffffffffffffffffffffffffffffffffffff168160020160009054906101000a900473ffffffffffffffffffffffffffffffffffffffff1673ffffffffffffffffffffffffffffffffffffffff16145b156103fa578192505061040e565b508080610406906126a2565b915050610214565b50600019811415610454576040517f08c379a000000000000000000000000000000000000000000000000000000000815260040161044b90612748565b60405180910390fd5b600080737a250d5630b4cf539739df2c5dacb4c659f2488d73ffffffffffffffffffffffffffffffffffffffff1663baa2abde85858154811061049a57610499612644565b5b906000526020600020906006020160000160009054906101000a900473ffffffffffffffffffffffffffffffffffffffff168686815481106104df576104de612644565b5b906000526020600020906006020160010160009054906101000a900473ffffffffffffffffffffffffffffffffffffffff1687878154811061052457610523612644565b5b90600052602060002090600602016005015460008030426040518863ffffffff1660e01b815260040161055d97969594939291906127ad565b6040805180830381600087803b15801561057657600080fd5b505af115801561058a573d6000803e3d6000fd5b505050506040513d601f19601f820116820180604052508101906105ae9190612831565b915091506000600360008a73ffffffffffffffffffffffffffffffffffffffff1673ffffffffffffffffffffffffffffffffffffffff16815260200190815260200160002060008973ffffffffffffffffffffffffffffffffffffffff1673ffffffffffffffffffffffffffffffffffffffff1681526020019081526020016000205490506000600360008b73ffffffffffffffffffffffffffffffffffffffff1673ffffffffffffffffffffffffffffffffffffffff16815260200190815260200160002060008973ffffffffffffffffffffffffffffffffffffffff1673ffffffffffffffffffffffffffffffffffffffff1681526020019081526020016000205490506000600360008c73ffffffffffffffffffffffffffffffffffffffff1673ffffffffffffffffffffffffffffffffffffffff16815260200190815260200160002060008b73ffffffffffffffffffffffffffffffffffffffff1673ffffffffffffffffffffffffffffffffffffffff168152602001908152602001600020819055506000600360008c73ffffffffffffffffffffffffffffffffffffffff1673ffffffffffffffffffffffffffffffffffffffff16815260200190815260200160002060008a73ffffffffffffffffffffffffffffffffffffffff1673ffffffffffffffffffffffffffffffffffffffff168152602001908152602001600020819055508873ffffffffffffffffffffffffffffffffffffffff166323b872dd308c87866107e29190612871565b6040518463ffffffff1660e01b8152600401610800939291906128c7565b602060405180830381600087803b15801561081a57600080fd5b505af115801561082e573d6000803e3d6000fd5b505050506040513d601f19601f820116820180604052508101906108529190612936565b610891576040517f08c379a0000000000000000000000000000000000000000000000000000000008152600401610888906129af565b60405180910390fd5b8773ffffffffffffffffffffffffffffffffffffffff166323b872dd308c86856108bb9190612871565b6040518463ffffffff1660e01b81526004016108d9939291906128c7565b602060405180830381600087803b1580156108f357600080fd5b505af1158015610907573d6000803e3d6000fd5b505050506040513d601f19601f8201168201806040525081019061092b9190612936565b61096a576040517f08c379a000000000000000000000000000000000000000000000000000000000815260040161096190612a1b565b60405180910390fd5b60005b600260008c73ffffffffffffffffffffffffffffffffffffffff1673ffffffffffffffffffffffffffffffffffffffff16815260200190815260200160002080549050811015610f78578973ffffffffffffffffffffffffffffffffffffffff16600260008d73ffffffffffffffffffffffffffffffffffffffff1673ffffffffffffffffffffffffffffffffffffffff1681526020019081526020016000208281548110610a1f57610a1e612644565b5b906000526020600020906006020160000160009054906101000a900473ffffffffffffffffffffffffffffffffffffffff1673ffffffffffffffffffffffffffffffffffffffff16148015610b2157508873ffffffffffffffffffffffffffffffffffffffff16600260008d73ffffffffffffffffffffffffffffffffffffffff1673ffffffffffffffffffffffffffffffffffffffff1681526020019081526020016000208281548110610ad757610ad6612644565b5b906000526020600020906006020160010160009054906101000a900473ffffffffffffffffffffffffffffffffffffffff1673ffffffffffffffffffffffffffffffffffffffff16145b8015610bda57508773ffffffffffffffffffffffffffffffffffffffff16600260008d73ffffffffffffffffffffffffffffffffffffffff1673ffffffffffffffffffffffffffffffffffffffff1681526020019081526020016000208281548110610b9057610b8f612644565b5b906000526020600020906006020160020160009054906101000a900473ffffffffffffffffffffffffffffffffffffffff1673ffffffffffffffffffffffffffffffffffffffff16145b15610f6557600260008c73ffffffffffffffffffffffffffffffffffffffff1673ffffffffffffffffffffffffffffffffffffffff1681526020019081526020016000206001600260008e73ffffffffffffffffffffffffffffffffffffffff1673ffffffffffffffffffffffffffffffffffffffff16815260200190815260200160002080549050610c6d9190612a3b565b81548110610c7e57610c7d612644565b5b9060005260206000209060060201600260008d73ffffffffffffffffffffffffffffffffffffffff1673ffffffffffffffffffffffffffffffffffffffff1681526020019081526020016000208281548110610cdd57610cdc612644565b5b90600052602060002090600602016000820160009054906101000a900473ffffffffffffffffffffffffffffffffffffffff168160000160006101000a81548173ffffffffffffffffffffffffffffffffffffffff021916908373ffffffffffffffffffffffffffffffffffffffff1602179055506001820160009054906101000a900473ffffffffffffffffffffffffffffffffffffffff168160010160006101000a81548173ffffffffffffffffffffffffffffffffffffffff021916908373ffffffffffffffffffffffffffffffffffffffff1602179055506002820160009054906101000a900473ffffffffffffffffffffffffffffffffffffffff168160020160006101000a81548173ffffffffffffffffffffffffffffffffffffffff021916908373ffffffffffffffffffffffffffffffffffffffff1602179055506003820181600301908054610e3692919061212b565b506004820181600401908054610e4d92919061212b565b5060058201548160050155905050600260008c73ffffffffffffffffffffffffffffffffffffffff1673ffffffffffffffffffffffffffffffffffffffff168152602001908152602001600020805480610eaa57610ea9612a6f565b5b6001900381819060005260206000209060060201600080820160006101000a81549073ffffffffffffffffffffffffffffffffffffffff02191690556001820160006101000a81549073ffffffffffffffffffffffffffffffffffffffff02191690556002820160006101000a81549073ffffffffffffffffffffffffffffffffffffffff0219169055600382016000610f44919061217d565b600482016000610f54919061217d565b600582016000905550509055610f78565b8080610f70906126a2565b91505061096d565b506000600267ffffffffffffffff811115610f9657610f95612396565b5b604051908082528060200260200182016040528015610fc45781602001602082028036833780820191505090505b5090508481600081518110610fdc57610fdb612644565b5b6020026020010181815250508381600181518110610ffd57610ffc612644565b5b6020026020010181815250508773ffffffffffffffffffffffffffffffffffffffff168b73ffffffffffffffffffffffffffffffffffffffff167f74871d466ec2200aa91372682cc92a0ae5dcf54c8cb0d044bbeb6879481dd14d836040516110669190612b5c565b60405180910390a35050505050505050505050565b60006111256107ca61111761109b6107cd8861206f90919063ffffffff16565b6111096111046110d5623cda206110c78b8b600a6110b99190612cb1565b61206f90919063ffffffff16565b61206f90919063ffffffff16565b6110eb623cda298c61206f90919063ffffffff16565b6110f59190612871565b8a61206f90919063ffffffff16565b612085565b6120ff90919063ffffffff16565b61211590919063ffffffff16565b90509392505050565b6000735c69bee701ef814a2b6a3edd4b1652cb9cc5aa6f73ffffffffffffffffffffffffffffffffffffffff1663e6a4390586866040518363ffffffff1660e01b815260040161117f9291906125d9565b60206040518083038186803b15801561119757600080fd5b505afa1580156111ab573d6000803e3d6000fd5b505050506040513d601f19601f820116820180604052508101906111cf9190612617565b9050600073ffffffffffffffffffffffffffffffffffffffff168173ffffffffffffffffffffffffffffffffffffffff161415611241576040517f08c379a000000000000000000000000000000000000000000000000000000000815260040161123890612d48565b60405180910390fd5b8473ffffffffffffffffffffffffffffffffffffffff166323b872dd83308660008151811061127357611272612644565b5b60200260200101516040518463ffffffff1660e01b8152600401611299939291906128c7565b602060405180830381600087803b1580156112b357600080fd5b505af11580156112c7573d6000803e3d6000fd5b505050506040513d601f19601f820116820180604052508101906112eb9190612936565b61132a576040517f08c379a000000000000000000000000000000000000000000000000000000000815260040161132190612db4565b60405180910390fd5b8373ffffffffffffffffffffffffffffffffffffffff166323b872dd83308660018151811061135c5761135b612644565b5b60200260200101516040518463ffffffff1660e01b8152600401611382939291906128c7565b602060405180830381600087803b15801561139c57600080fd5b505af11580156113b0573d6000803e3d6000fd5b505050506040513d601f19601f820116820180604052508101906113d49190612936565b611413576040517f08c379a000000000000000000000000000000000000000000000000000000000815260040161140a90612e20565b60405180910390fd5b8473ffffffffffffffffffffffffffffffffffffffff1663095ea7b3737a250d5630b4cf539739df2c5dacb4c659f2488d8773ffffffffffffffffffffffffffffffffffffffff166370a08231306040518263ffffffff1660e01b815260040161147d91906125be565b60206040518083038186803b15801561149557600080fd5b505afa1580156114a9573d6000803e3d6000fd5b505050506040513d601f19601f820116820180604052508101906114cd9190612e40565b6040518363ffffffff1660e01b81526004016114ea929190612e6d565b602060405180830381600087803b15801561150457600080fd5b505af1158015611518573d6000803e3d6000fd5b505050506040513d601f19601f8201168201806040525081019061153c9190612936565b508373ffffffffffffffffffffffffffffffffffffffff1663095ea7b3737a250d5630b4cf539739df2c5dacb4c659f2488d8673ffffffffffffffffffffffffffffffffffffffff166370a08231306040518263ffffffff1660e01b81526004016115a791906125be565b60206040518083038186803b1580156115bf57600080fd5b505afa1580156115d3573d6000803e3d6000fd5b505050506040513d601f19601f820116820180604052508101906115f79190612e40565b6040518363ffffffff1660e01b8152600401611614929190612e6d565b602060405180830381600087803b15801561162e57600080fd5b505af1158015611642573d6000803e3d6000fd5b505050506040513d601f19601f820116820180604052508101906116669190612936565b506000806000737a250d5630b4cf539739df2c5dacb4c659f2488d73ffffffffffffffffffffffffffffffffffffffff1663e8e3370089898b73ffffffffffffffffffffffffffffffffffffffff166370a08231306040518263ffffffff1660e01b81526004016116d791906125be565b60206040518083038186803b1580156116ef57600080fd5b505afa158015611703573d6000803e3d6000fd5b505050506040513d601f19601f820116820180604052508101906117279190612e40565b8b73ffffffffffffffffffffffffffffffffffffffff166370a08231306040518263ffffffff1660e01b815260040161176091906125be565b60206040518083038186803b15801561177857600080fd5b505afa15801561178c573d6000803e3d6000fd5b505050506040513d601f19601f820116820180604052508101906117b09190612e40565b60008030426040518963ffffffff1660e01b81526004016117d8989796959493929190612e96565b606060405180830381600087803b1580156117f257600080fd5b505af1158015611806573d6000803e3d6000fd5b505050506040513d601f19601f8201168201806040525081019061182a9190612f14565b9250925092506000600267ffffffffffffffff81111561184d5761184c612396565b5b60405190808252806020026020018201604052801561187b5781602001602082028036833780820191505090505b509050838160008151811061189357611892612644565b5b60200260200101818152505082816001815181106118b4576118b3612644565b5b60200260200101818152505060006040518060c001604052808b73ffffffffffffffffffffffffffffffffffffffff1681526020018a73ffffffffffffffffffffffffffffffffffffffff1681526020018773ffffffffffffffffffffffffffffffffffffffff168152602001898152602001838152602001848152509050600260008873ffffffffffffffffffffffffffffffffffffffff1673ffffffffffffffffffffffffffffffffffffffff16815260200190815260200160002081908060018154018082558091505060019003906000526020600020906006020160009091909190915060008201518160000160006101000a81548173ffffffffffffffffffffffffffffffffffffffff021916908373ffffffffffffffffffffffffffffffffffffffff16021790555060208201518160010160006101000a81548173ffffffffffffffffffffffffffffffffffffffff021916908373ffffffffffffffffffffffffffffffffffffffff16021790555060408201518160020160006101000a81548173ffffffffffffffffffffffffffffffffffffffff021916908373ffffffffffffffffffffffffffffffffffffffff1602179055506060820151816003019080519060200190611a8d92919061219e565b506080820151816004019080519060200190611aaa92919061219e565b5060a08201518160050155505081600081518110611acb57611aca612644565b5b602002602001015188600081518110611ae757611ae6612644565b5b6020026020010151611af99190612a3b565b600360008973ffffffffffffffffffffffffffffffffffffffff1673ffffffffffffffffffffffffffffffffffffffff16815260200190815260200160002060008c73ffffffffffffffffffffffffffffffffffffffff1673ffffffffffffffffffffffffffffffffffffffff1681526020019081526020016000206000828254611b849190612871565b9250508190555081600181518110611b9f57611b9e612644565b5b602002602001015188600181518110611bbb57611bba612644565b5b6020026020010151611bcd9190612a3b565b600360008973ffffffffffffffffffffffffffffffffffffffff1673ffffffffffffffffffffffffffffffffffffffff16815260200190815260200160002060008c73ffffffffffffffffffffffffffffffffffffffff1673ffffffffffffffffffffffffffffffffffffffff1681526020019081526020016000206000828254611c589190612871565b925050819055508573ffffffffffffffffffffffffffffffffffffffff168773ffffffffffffffffffffffffffffffffffffffff167f0abece5f4aed6cf1fac4ddf8497567f25c27ca46be2737e9db8cc79679c3122d84604051611cbc9190612b5c565b60405180910390a350505050505050505050565b6000735c69bee701ef814a2b6a3edd4b1652cb9cc5aa6f73ffffffffffffffffffffffffffffffffffffffff1663e6a4390585856040518363ffffffff1660e01b8152600401611d219291906125d9565b60206040518083038186803b158015611d3957600080fd5b505afa158015611d4d573d6000803e3d6000fd5b505050506040513d601f19601f82011682018060405250810190611d719190612617565b90506000808273ffffffffffffffffffffffffffffffffffffffff16630902f1ac6040518163ffffffff1660e01b815260040160606040518083038186803b158015611dbc57600080fd5b505afa158015611dd0573d6000803e3d6000fd5b505050506040513d601f19601f82011682018060405250810190611df49190612fe9565b506dffffffffffffffffffffffffffff1691506dffffffffffffffffffffffffffff16915060008673ffffffffffffffffffffffffffffffffffffffff1663313ce5676040518163ffffffff1660e01b815260040160206040518083038186803b158015611e6157600080fd5b505afa158015611e75573d6000803e3d6000fd5b505050506040513d601f19601f82011682018060405250810190611e999190613075565b60ff16905060008773ffffffffffffffffffffffffffffffffffffffff168573ffffffffffffffffffffffffffffffffffffffff16630dfe16816040518163ffffffff1660e01b815260040160206040518083038186803b158015611efd57600080fd5b505afa158015611f11573d6000803e3d6000fd5b505050506040513d601f19601f82011682018060405250810190611f359190612617565b73ffffffffffffffffffffffffffffffffffffffff161415611fcb57611f5c84878461107b565b9050808573ffffffffffffffffffffffffffffffffffffffff168973ffffffffffffffffffffffffffffffffffffffff167fd1974e6c89aa5bf337342810a90b783b72c05a51d00f617000e1571a6ea4ca218787604051611fbe9291906130a2565b60405180910390a4612041565b611fd683878461107b565b9050808573ffffffffffffffffffffffffffffffffffffffff168973ffffffffffffffffffffffffffffffffffffffff167fd1974e6c89aa5bf337342810a90b783b72c05a51d00f617000e1571a6ea4ca2187876040516120389291906130a2565b60405180910390a45b5050505050505050565b60008054906101000a900473ffffffffffffffffffffffffffffffffffffffff1681565b6000818361207d91906130cb565b905092915050565b600060038211156120ec57819050600060016002846120a49190613154565b6120ae9190612871565b90505b818110156120e65780915060028182856120cb9190613154565b6120d59190612871565b6120df9190613154565b90506120b1565b506120fa565b600082146120f957600190505b5b919050565b6000818361210d9190612a3b565b905092915050565b600081836121239190613154565b905092915050565b82805482825590600052602060002090810192821561216c5760005260206000209182015b8281111561216b578254825591600101919060010190612150565b5b50905061217991906121eb565b5090565b508054600082559060005260206000209081019061219b91906121eb565b50565b8280548282559060005260206000209081019282156121da579160200282015b828111156121d95782518255916020019190600101906121be565b5b5090506121e791906121eb565b5090565b5b808211156122045760008160009055506001016121ec565b5090565b6000604051905090565b600080fd5b600080fd5b600073ffffffffffffffffffffffffffffffffffffffff82169050919050565b60006122478261221c565b9050919050565b6122578161223c565b811461226257600080fd5b50565b6000813590506122748161224e565b92915050565b60008060006060848603121561229357612292612212565b5b60006122a186828701612265565b93505060206122b286828701612265565b92505060406122c386828701612265565b9150509250925092565b6000819050919050565b6122e0816122cd565b81146122eb57600080fd5b50565b6000813590506122fd816122d7565b92915050565b60008060006060848603121561231c5761231b612212565b5b600061232a868287016122ee565b935050602061233b868287016122ee565b925050604061234c868287016122ee565b9150509250925092565b61235f816122cd565b82525050565b600060208201905061237a6000830184612356565b92915050565b600080fd5b6000601f19601f8301169050919050565b7f4e487b7100000000000000000000000000000000000000000000000000000000600052604160045260246000fd5b6123ce82612385565b810181811067ffffffffffffffff821117156123ed576123ec612396565b5b80604052505050565b6000612400612208565b905061240c82826123c5565b919050565b600067ffffffffffffffff82111561242c5761242b612396565b5b602082029050602081019050919050565b600080fd5b600061245561245084612411565b6123f6565b905080838252602082019050602084028301858111156124785761247761243d565b5b835b818110156124a1578061248d88826122ee565b84526020840193505060208101905061247a565b5050509392505050565b600082601f8301126124c0576124bf612380565b5b81356124d0848260208601612442565b91505092915050565b600080600080608085870312156124f3576124f2612212565b5b600061250187828801612265565b945050602061251287828801612265565b935050604085013567ffffffffffffffff81111561253357612532612217565b5b61253f878288016124ab565b925050606061255087828801612265565b91505092959194509250565b60008060006060848603121561257557612574612212565b5b600061258386828701612265565b935050602061259486828701612265565b92505060406125a5868287016122ee565b9150509250925092565b6125b88161223c565b82525050565b60006020820190506125d360008301846125af565b92915050565b60006040820190506125ee60008301856125af565b6125fb60208301846125af565b9392505050565b6000815190506126118161224e565b92915050565b60006020828403121561262d5761262c612212565b5b600061263b84828501612602565b91505092915050565b7f4e487b7100000000000000000000000000000000000000000000000000000000600052603260045260246000fd5b7f4e487b7100000000000000000000000000000000000000000000000000000000600052601160045260246000fd5b60006126ad826122cd565b91507fffffffffffffffffffffffffffffffffffffffffffffffffffffffffffffffff8214156126e0576126df612673565b5b600182019050919050565b600082825260208201905092915050565b7f4465706f736974206e6f7420666f756e64000000000000000000000000000000600082015250565b60006127326011836126eb565b915061273d826126fc565b602082019050919050565b6000602082019050818103600083015261276181612725565b9050919050565b6000819050919050565b6000819050919050565b600061279761279261278d84612768565b612772565b6122cd565b9050919050565b6127a78161277c565b82525050565b600060e0820190506127c2600083018a6125af565b6127cf60208301896125af565b6127dc6040830188612356565b6127e9606083018761279e565b6127f6608083018661279e565b61280360a08301856125af565b61281060c0830184612356565b98975050505050505050565b60008151905061282b816122d7565b92915050565b6000806040838503121561284857612847612212565b5b60006128568582860161281c565b92505060206128678582860161281c565b9150509250929050565b600061287c826122cd565b9150612887836122cd565b9250827fffffffffffffffffffffffffffffffffffffffffffffffffffffffffffffffff038211156128bc576128bb612673565b5b828201905092915050565b60006060820190506128dc60008301866125af565b6128e960208301856125af565b6128f66040830184612356565b949350505050565b60008115159050919050565b612913816128fe565b811461291e57600080fd5b50565b6000815190506129308161290a565b92915050565b60006020828403121561294c5761294b612212565b5b600061295a84828501612921565b91505092915050565b7f52657475726e20666f7220746f6b656e2041206661696c656400000000000000600082015250565b60006129996019836126eb565b91506129a482612963565b602082019050919050565b600060208201905081810360008301526129c88161298c565b9050919050565b7f52657475726e20666f7220746f6b656e2042206661696c656400000000000000600082015250565b6000612a056019836126eb565b9150612a10826129cf565b602082019050919050565b60006020820190508181036000830152612a34816129f8565b9050919050565b6000612a46826122cd565b9150612a51836122cd565b925082821015612a6457612a63612673565b5b828203905092915050565b7f4e487b7100000000000000000000000000000000000000000000000000000000600052603160045260246000fd5b600081519050919050565b600082825260208201905092915050565b6000819050602082019050919050565b612ad3816122cd565b82525050565b6000612ae58383612aca565b60208301905092915050565b6000602082019050919050565b6000612b0982612a9e565b612b138185612aa9565b9350612b1e83612aba565b8060005b83811015612b4f578151612b368882612ad9565b9750612b4183612af1565b925050600181019050612b22565b5085935050505092915050565b60006020820190508181036000830152612b768184612afe565b905092915050565b60008160011c9050919050565b6000808291508390505b6001851115612bd557808604811115612bb157612bb0612673565b5b6001851615612bc05780820291505b8081029050612bce85612b7e565b9450612b95565b94509492505050565b600082612bee5760019050612caa565b81612bfc5760009050612caa565b8160018114612c125760028114612c1c57612c4b565b6001915050612caa565b60ff841115612c2e57612c2d612673565b5b8360020a915084821115612c4557612c44612673565b5b50612caa565b5060208310610133831016604e8410600b8410161715612c805782820a905083811115612c7b57612c7a612673565b5b612caa565b612c8d8484846001612b8b565b92509050818404811115612ca457612ca3612673565b5b81810290505b9392505050565b6000612cbc826122cd565b9150612cc7836122cd565b9250612cf47fffffffffffffffffffffffffffffffffffffffffffffffffffffffffffffffff8484612bde565b905092915050565b7f5061697220646f6573206e6f7420657869737400000000000000000000000000600082015250565b6000612d326013836126eb565b9150612d3d82612cfc565b602082019050919050565b60006020820190508181036000830152612d6181612d25565b9050919050565b7f4465706f73697420666f7220746f6b656e2041206661696c6564000000000000600082015250565b6000612d9e601a836126eb565b9150612da982612d68565b602082019050919050565b60006020820190508181036000830152612dcd81612d91565b9050919050565b7f4465706f73697420666f7220746f6b656e2042206661696c6564000000000000600082015250565b6000612e0a601a836126eb565b9150612e1582612dd4565b602082019050919050565b60006020820190508181036000830152612e3981612dfd565b9050919050565b600060208284031215612e5657612e55612212565b5b6000612e648482850161281c565b91505092915050565b6000604082019050612e8260008301856125af565b612e8f6020830184612356565b9392505050565b600061010082019050612eac600083018b6125af565b612eb9602083018a6125af565b612ec66040830189612356565b612ed36060830188612356565b612ee0608083018761279e565b612eed60a083018661279e565b612efa60c08301856125af565b612f0760e0830184612356565b9998505050505050505050565b600080600060608486031215612f2d57612f2c612212565b5b6000612f3b8682870161281c565b9350506020612f4c8682870161281c565b9250506040612f5d8682870161281c565b9150509250925092565b60006dffffffffffffffffffffffffffff82169050919050565b612f8a81612f67565b8114612f9557600080fd5b50565b600081519050612fa781612f81565b92915050565b600063ffffffff82169050919050565b612fc681612fad565b8114612fd157600080fd5b50565b600081519050612fe381612fbd565b92915050565b60008060006060848603121561300257613001612212565b5b600061301086828701612f98565b935050602061302186828701612f98565b925050604061303286828701612fd4565b9150509250925092565b600060ff82169050919050565b6130528161303c565b811461305d57600080fd5b50565b60008151905061306f81613049565b92915050565b60006020828403121561308b5761308a612212565b5b600061309984828501613060565b91505092915050565b60006040820190506130b76000830185612356565b6130c46020830184612356565b9392505050565b60006130d6826122cd565b91506130e1836122cd565b9250817fffffffffffffffffffffffffffffffffffffffffffffffffffffffffffffffff048311821515161561311a57613119612673565b5b828202905092915050565b7f4e487b7100000000000000000000000000000000000000000000000000000000600052601260045260246000fd5b600061315f826122cd565b915061316a836122cd565b92508261317a57613179613125565b5b82820490509291505056fea2646970667358221220689f9e8b6dd61fc29578d718c9b863bf679981559cca719a11cfdb4b490783d764736f6c63430008090033",
  "linkReferences": {},
  "deployedLinkReferences": {}
}