{
  "_format": "hh-sol-artifact-1",
  "contractName": "MonoLiquidity",
  "sourceName": "contracts/MonoLiquidity.sol",
  "abi": [
    {
      "inputs": [],
      "stateMutability": "nonpayable",
      "type": "constructor"
    },
    {
      "anonymous": false,
      "inputs": [
        {
          "indexed": false,
          "internalType": "contract IERC20",
          "name": "sellToken",
          "type": "address"
        },
        {
          "indexed": false,
          "internalType": "contract IERC20",
          "name": "buyToken",
          "type": "address"
        },
        {
          "indexed": false,
          "internalType": "uint256",
          "name": "boughtAmount",
          "type": "uint256"
        }
      ],
      "name": "BoughtTokens",
      "type": "event"
    },
    {
      "anonymous": false,
      "inputs": [
        {
          "indexed": true,
          "internalType": "address",
          "name": "tokenA",
          "type": "address"
        },
        {
          "indexed": true,
          "internalType": "address",
          "name": "pair",
          "type": "address"
        },
        {
          "indexed": true,
          "internalType": "uint256",
          "name": "amount",
          "type": "uint256"
        },
        {
          "indexed": false,
          "internalType": "uint256",
          "name": "reserve0",
          "type": "uint256"
        },
        {
          "indexed": false,
          "internalType": "uint256",
          "name": "reserve1",
          "type": "uint256"
        },
        {
          "indexed": false,
          "internalType": "uint256",
          "name": "decimals",
          "type": "uint256"
        }
      ],
      "name": "CalculatedSwapAmount",
      "type": "event"
    },
    {
      "anonymous": false,
      "inputs": [
        {
          "indexed": true,
          "internalType": "address",
          "name": "provider",
          "type": "address"
        },
        {
          "indexed": true,
          "internalType": "address",
          "name": "liquidityPool",
          "type": "address"
        },
        {
          "indexed": false,
          "internalType": "uint256[]",
          "name": "amountsProvided",
          "type": "uint256[]"
        }
      ],
      "name": "LiquidityProvided",
      "type": "event"
    },
    {
      "anonymous": false,
      "inputs": [
        {
          "indexed": true,
          "internalType": "address",
          "name": "remover",
          "type": "address"
        },
        {
          "indexed": true,
          "internalType": "address",
          "name": "liquidityPool",
          "type": "address"
        },
        {
          "indexed": false,
          "internalType": "uint256[]",
          "name": "amountsRemoved",
          "type": "uint256[]"
        }
      ],
      "name": "LiquidtyRemoved",
      "type": "event"
    },
    {
      "inputs": [
        {
          "internalType": "address",
          "name": "_tokenA",
          "type": "address"
        },
        {
          "internalType": "address",
          "name": "_tokenB",
          "type": "address"
        },
        {
          "internalType": "uint256[]",
          "name": "_amounts",
          "type": "uint256[]"
        },
        {
          "internalType": "address",
          "name": "_liquidityProvider",
          "type": "address"
        }
      ],
      "name": "addLiquidity",
      "outputs": [],
      "stateMutability": "payable",
      "type": "function"
    },
    {
      "inputs": [
        {
          "internalType": "address",
          "name": "_tokenA",
          "type": "address"
        },
        {
          "internalType": "address",
          "name": "_tokenB",
          "type": "address"
        },
        {
          "internalType": "uint256",
          "name": "_amountA",
          "type": "uint256"
        }
      ],
      "name": "calculateOptimalLiquidity",
      "outputs": [],
      "stateMutability": "nonpayable",
      "type": "function"
    },
    {
      "inputs": [],
      "name": "exchangeProxy",
      "outputs": [
        {
          "internalType": "address",
          "name": "",
          "type": "address"
        }
      ],
      "stateMutability": "view",
      "type": "function"
    },
    {
      "inputs": [
        {
          "internalType": "uint256",
          "name": "r",
          "type": "uint256"
        },
        {
          "internalType": "uint256",
          "name": "a",
          "type": "uint256"
        },
        {
          "internalType": "uint256",
          "name": "decimals",
          "type": "uint256"
        }
      ],
      "name": "getSwapAmount",
      "outputs": [
        {
          "internalType": "uint256",
          "name": "",
          "type": "uint256"
        }
      ],
      "stateMutability": "pure",
      "type": "function"
    },
    {
      "inputs": [
        {
          "internalType": "address",
          "name": "_remover",
          "type": "address"
        },
        {
          "internalType": "address",
          "name": "_tokenA",
          "type": "address"
        },
        {
          "internalType": "address",
          "name": "_tokenB",
          "type": "address"
        }
      ],
      "name": "removeLiquidity",
      "outputs": [],
      "stateMutability": "nonpayable",
      "type": "function"
    }
  ],
  "bytecode": "0x608060405273def1c0ded9bec7f1a1670819833240f027b25eff6000806101000a81548173ffffffffffffffffffffffffffffffffffffffff021916908373ffffffffffffffffffffffffffffffffffffffff16021790555034801561006457600080fd5b5033600160006101000a81548173ffffffffffffffffffffffffffffffffffffffff021916908373ffffffffffffffffffffffffffffffffffffffff1602179055506131cd806100b56000396000f3fe60806040526004361061004a5760003560e01c80633480c4581461004f57806345cf2ef61461007857806361e4290d146100b5578063b1ec2387146100d1578063c7c30be1146100fa575b600080fd5b34801561005b57600080fd5b506100766004803603810190610071919061227e565b610125565b005b34801561008457600080fd5b5061009f600480360381019061009a9190612307565b61107b565b6040516100ac9190612369565b60405180910390f35b6100cf60048036038101906100ca91906124dd565b61112e565b005b3480156100dd57600080fd5b506100f860048036038101906100f39190612560565b611cd0565b005b34801561010657600080fd5b5061010f61204f565b60405161011c91906125c2565b60405180910390f35b6000735c69bee701ef814a2b6a3edd4b1652cb9cc5aa6f73ffffffffffffffffffffffffffffffffffffffff1663e6a4390584846040518363ffffffff1660e01b81526004016101769291906125dd565b60206040518083038186803b15801561018e57600080fd5b505afa1580156101a2573d6000803e3d6000fd5b505050506040513d601f19601f820116820180604052508101906101c6919061261b565b90506000600260008673ffffffffffffffffffffffffffffffffffffffff1673ffffffffffffffffffffffffffffffffffffffff168152602001908152602001600020905060008019905060005b828054905081101561040e57600083828154811061023557610234612648565b5b906000526020600020906006020190508673ffffffffffffffffffffffffffffffffffffffff168160000160009054906101000a900473ffffffffffffffffffffffffffffffffffffffff1673ffffffffffffffffffffffffffffffffffffffff161480156102f357508573ffffffffffffffffffffffffffffffffffffffff168160010160009054906101000a900473ffffffffffffffffffffffffffffffffffffffff1673ffffffffffffffffffffffffffffffffffffffff16145b80156103ec5750735c69bee701ef814a2b6a3edd4b1652cb9cc5aa6f73ffffffffffffffffffffffffffffffffffffffff1663e6a4390588886040518363ffffffff1660e01b81526004016103499291906125dd565b60206040518083038186803b15801561036157600080fd5b505afa158015610375573d6000803e3d6000fd5b505050506040513d601f19601f82011682018060405250810190610399919061261b565b73ffffffffffffffffffffffffffffffffffffffff168160020160009054906101000a900473ffffffffffffffffffffffffffffffffffffffff1673ffffffffffffffffffffffffffffffffffffffff16145b156103fa578192505061040e565b508080610406906126a6565b915050610214565b50600019811415610454576040517f08c379a000000000000000000000000000000000000000000000000000000000815260040161044b9061274c565b60405180910390fd5b600080737a250d5630b4cf539739df2c5dacb4c659f2488d73ffffffffffffffffffffffffffffffffffffffff1663baa2abde85858154811061049a57610499612648565b5b906000526020600020906006020160000160009054906101000a900473ffffffffffffffffffffffffffffffffffffffff168686815481106104df576104de612648565b5b906000526020600020906006020160010160009054906101000a900473ffffffffffffffffffffffffffffffffffffffff1687878154811061052457610523612648565b5b90600052602060002090600602016005015460008030426040518863ffffffff1660e01b815260040161055d97969594939291906127b1565b6040805180830381600087803b15801561057657600080fd5b505af115801561058a573d6000803e3d6000fd5b505050506040513d601f19601f820116820180604052508101906105ae9190612835565b915091506000600360008a73ffffffffffffffffffffffffffffffffffffffff1673ffffffffffffffffffffffffffffffffffffffff16815260200190815260200160002060008973ffffffffffffffffffffffffffffffffffffffff1673ffffffffffffffffffffffffffffffffffffffff1681526020019081526020016000205490506000600360008b73ffffffffffffffffffffffffffffffffffffffff1673ffffffffffffffffffffffffffffffffffffffff16815260200190815260200160002060008973ffffffffffffffffffffffffffffffffffffffff1673ffffffffffffffffffffffffffffffffffffffff1681526020019081526020016000205490506000600360008c73ffffffffffffffffffffffffffffffffffffffff1673ffffffffffffffffffffffffffffffffffffffff16815260200190815260200160002060008b73ffffffffffffffffffffffffffffffffffffffff1673ffffffffffffffffffffffffffffffffffffffff168152602001908152602001600020819055506000600360008c73ffffffffffffffffffffffffffffffffffffffff1673ffffffffffffffffffffffffffffffffffffffff16815260200190815260200160002060008a73ffffffffffffffffffffffffffffffffffffffff1673ffffffffffffffffffffffffffffffffffffffff168152602001908152602001600020819055508873ffffffffffffffffffffffffffffffffffffffff166323b872dd308c87866107e29190612875565b6040518463ffffffff1660e01b8152600401610800939291906128cb565b602060405180830381600087803b15801561081a57600080fd5b505af115801561082e573d6000803e3d6000fd5b505050506040513d601f19601f82011682018060405250810190610852919061293a565b610891576040517f08c379a0000000000000000000000000000000000000000000000000000000008152600401610888906129b3565b60405180910390fd5b8773ffffffffffffffffffffffffffffffffffffffff166323b872dd308c86856108bb9190612875565b6040518463ffffffff1660e01b81526004016108d9939291906128cb565b602060405180830381600087803b1580156108f357600080fd5b505af1158015610907573d6000803e3d6000fd5b505050506040513d601f19601f8201168201806040525081019061092b919061293a565b61096a576040517f08c379a000000000000000000000000000000000000000000000000000000000815260040161096190612a1f565b60405180910390fd5b60005b600260008c73ffffffffffffffffffffffffffffffffffffffff1673ffffffffffffffffffffffffffffffffffffffff16815260200190815260200160002080549050811015610f78578973ffffffffffffffffffffffffffffffffffffffff16600260008d73ffffffffffffffffffffffffffffffffffffffff1673ffffffffffffffffffffffffffffffffffffffff1681526020019081526020016000208281548110610a1f57610a1e612648565b5b906000526020600020906006020160000160009054906101000a900473ffffffffffffffffffffffffffffffffffffffff1673ffffffffffffffffffffffffffffffffffffffff16148015610b2157508873ffffffffffffffffffffffffffffffffffffffff16600260008d73ffffffffffffffffffffffffffffffffffffffff1673ffffffffffffffffffffffffffffffffffffffff1681526020019081526020016000208281548110610ad757610ad6612648565b5b906000526020600020906006020160010160009054906101000a900473ffffffffffffffffffffffffffffffffffffffff1673ffffffffffffffffffffffffffffffffffffffff16145b8015610bda57508773ffffffffffffffffffffffffffffffffffffffff16600260008d73ffffffffffffffffffffffffffffffffffffffff1673ffffffffffffffffffffffffffffffffffffffff1681526020019081526020016000208281548110610b9057610b8f612648565b5b906000526020600020906006020160020160009054906101000a900473ffffffffffffffffffffffffffffffffffffffff1673ffffffffffffffffffffffffffffffffffffffff16145b15610f6557600260008c73ffffffffffffffffffffffffffffffffffffffff1673ffffffffffffffffffffffffffffffffffffffff1681526020019081526020016000206001600260008e73ffffffffffffffffffffffffffffffffffffffff1673ffffffffffffffffffffffffffffffffffffffff16815260200190815260200160002080549050610c6d9190612a3f565b81548110610c7e57610c7d612648565b5b9060005260206000209060060201600260008d73ffffffffffffffffffffffffffffffffffffffff1673ffffffffffffffffffffffffffffffffffffffff1681526020019081526020016000208281548110610cdd57610cdc612648565b5b90600052602060002090600602016000820160009054906101000a900473ffffffffffffffffffffffffffffffffffffffff168160000160006101000a81548173ffffffffffffffffffffffffffffffffffffffff021916908373ffffffffffffffffffffffffffffffffffffffff1602179055506001820160009054906101000a900473ffffffffffffffffffffffffffffffffffffffff168160010160006101000a81548173ffffffffffffffffffffffffffffffffffffffff021916908373ffffffffffffffffffffffffffffffffffffffff1602179055506002820160009054906101000a900473ffffffffffffffffffffffffffffffffffffffff168160020160006101000a81548173ffffffffffffffffffffffffffffffffffffffff021916908373ffffffffffffffffffffffffffffffffffffffff1602179055506003820181600301908054610e3692919061212f565b506004820181600401908054610e4d92919061212f565b5060058201548160050155905050600260008c73ffffffffffffffffffffffffffffffffffffffff1673ffffffffffffffffffffffffffffffffffffffff168152602001908152602001600020805480610eaa57610ea9612a73565b5b6001900381819060005260206000209060060201600080820160006101000a81549073ffffffffffffffffffffffffffffffffffffffff02191690556001820160006101000a81549073ffffffffffffffffffffffffffffffffffffffff02191690556002820160006101000a81549073ffffffffffffffffffffffffffffffffffffffff0219169055600382016000610f449190612181565b600482016000610f549190612181565b600582016000905550509055610f78565b8080610f70906126a6565b91505061096d565b506000600267ffffffffffffffff811115610f9657610f9561239a565b5b604051908082528060200260200182016040528015610fc45781602001602082028036833780820191505090505b5090508481600081518110610fdc57610fdb612648565b5b6020026020010181815250508381600181518110610ffd57610ffc612648565b5b6020026020010181815250508773ffffffffffffffffffffffffffffffffffffffff168b73ffffffffffffffffffffffffffffffffffffffff167f74871d466ec2200aa91372682cc92a0ae5dcf54c8cb0d044bbeb6879481dd14d836040516110669190612b60565b60405180910390a35050505050505050505050565b60006111256107ca61111761109b6107cd8861207390919063ffffffff16565b6111096111046110d5623cda206110c78b8b600a6110b99190612cb5565b61207390919063ffffffff16565b61207390919063ffffffff16565b6110eb623cda298c61207390919063ffffffff16565b6110f59190612875565b8a61207390919063ffffffff16565b612089565b61210390919063ffffffff16565b61211990919063ffffffff16565b90509392505050565b6000735c69bee701ef814a2b6a3edd4b1652cb9cc5aa6f73ffffffffffffffffffffffffffffffffffffffff1663e6a4390586866040518363ffffffff1660e01b815260040161117f9291906125dd565b60206040518083038186803b15801561119757600080fd5b505afa1580156111ab573d6000803e3d6000fd5b505050506040513d601f19601f820116820180604052508101906111cf919061261b565b9050600073ffffffffffffffffffffffffffffffffffffffff168173ffffffffffffffffffffffffffffffffffffffff161415611241576040517f08c379a000000000000000000000000000000000000000000000000000000000815260040161123890612d4c565b60405180910390fd5b8473ffffffffffffffffffffffffffffffffffffffff166323b872dd83308660008151811061127357611272612648565b5b60200260200101516040518463ffffffff1660e01b8152600401611299939291906128cb565b602060405180830381600087803b1580156112b357600080fd5b505af11580156112c7573d6000803e3d6000fd5b505050506040513d601f19601f820116820180604052508101906112eb919061293a565b61132a576040517f08c379a000000000000000000000000000000000000000000000000000000000815260040161132190612db8565b60405180910390fd5b8373ffffffffffffffffffffffffffffffffffffffff166323b872dd83308660018151811061135c5761135b612648565b5b60200260200101516040518463ffffffff1660e01b8152600401611382939291906128cb565b602060405180830381600087803b15801561139c57600080fd5b505af11580156113b0573d6000803e3d6000fd5b505050506040513d601f19601f820116820180604052508101906113d4919061293a565b611413576040517f08c379a000000000000000000000000000000000000000000000000000000000815260040161140a90612e24565b60405180910390fd5b8473ffffffffffffffffffffffffffffffffffffffff1663095ea7b3737a250d5630b4cf539739df2c5dacb4c659f2488d8773ffffffffffffffffffffffffffffffffffffffff166370a08231306040518263ffffffff1660e01b815260040161147d91906125c2565b60206040518083038186803b15801561149557600080fd5b505afa1580156114a9573d6000803e3d6000fd5b505050506040513d601f19601f820116820180604052508101906114cd9190612e44565b6040518363ffffffff1660e01b81526004016114ea929190612e71565b602060405180830381600087803b15801561150457600080fd5b505af1158015611518573d6000803e3d6000fd5b505050506040513d601f19601f8201168201806040525081019061153c919061293a565b508373ffffffffffffffffffffffffffffffffffffffff1663095ea7b3737a250d5630b4cf539739df2c5dacb4c659f2488d8673ffffffffffffffffffffffffffffffffffffffff166370a08231306040518263ffffffff1660e01b81526004016115a791906125c2565b60206040518083038186803b1580156115bf57600080fd5b505afa1580156115d3573d6000803e3d6000fd5b505050506040513d601f19601f820116820180604052508101906115f79190612e44565b6040518363ffffffff1660e01b8152600401611614929190612e71565b602060405180830381600087803b15801561162e57600080fd5b505af1158015611642573d6000803e3d6000fd5b505050506040513d601f19601f82011682018060405250810190611666919061293a565b506000806000737a250d5630b4cf539739df2c5dacb4c659f2488d73ffffffffffffffffffffffffffffffffffffffff1663e8e3370089898b73ffffffffffffffffffffffffffffffffffffffff166370a08231306040518263ffffffff1660e01b81526004016116d791906125c2565b60206040518083038186803b1580156116ef57600080fd5b505afa158015611703573d6000803e3d6000fd5b505050506040513d601f19601f820116820180604052508101906117279190612e44565b8b73ffffffffffffffffffffffffffffffffffffffff166370a08231306040518263ffffffff1660e01b815260040161176091906125c2565b60206040518083038186803b15801561177857600080fd5b505afa15801561178c573d6000803e3d6000fd5b505050506040513d601f19601f820116820180604052508101906117b09190612e44565b60008030426040518963ffffffff1660e01b81526004016117d8989796959493929190612e9a565b606060405180830381600087803b1580156117f257600080fd5b505af1158015611806573d6000803e3d6000fd5b505050506040513d601f19601f8201168201806040525081019061182a9190612f18565b9250925092506000600267ffffffffffffffff81111561184d5761184c61239a565b5b60405190808252806020026020018201604052801561187b5781602001602082028036833780820191505090505b509050838160008151811061189357611892612648565b5b60200260200101818152505082816001815181106118b4576118b3612648565b5b60200260200101818152505060006040518060c001604052808b73ffffffffffffffffffffffffffffffffffffffff1681526020018a73ffffffffffffffffffffffffffffffffffffffff1681526020018773ffffffffffffffffffffffffffffffffffffffff168152602001898152602001838152602001848152509050600260008873ffffffffffffffffffffffffffffffffffffffff1673ffffffffffffffffffffffffffffffffffffffff16815260200190815260200160002081908060018154018082558091505060019003906000526020600020906006020160009091909190915060008201518160000160006101000a81548173ffffffffffffffffffffffffffffffffffffffff021916908373ffffffffffffffffffffffffffffffffffffffff16021790555060208201518160010160006101000a81548173ffffffffffffffffffffffffffffffffffffffff021916908373ffffffffffffffffffffffffffffffffffffffff16021790555060408201518160020160006101000a81548173ffffffffffffffffffffffffffffffffffffffff021916908373ffffffffffffffffffffffffffffffffffffffff1602179055506060820151816003019080519060200190611a8d9291906121a2565b506080820151816004019080519060200190611aaa9291906121a2565b5060a08201518160050155505081600081518110611acb57611aca612648565b5b602002602001015188600081518110611ae757611ae6612648565b5b6020026020010151611af99190612a3f565b600360008973ffffffffffffffffffffffffffffffffffffffff1673ffffffffffffffffffffffffffffffffffffffff16815260200190815260200160002060008c73ffffffffffffffffffffffffffffffffffffffff1673ffffffffffffffffffffffffffffffffffffffff1681526020019081526020016000206000828254611b849190612875565b9250508190555081600181518110611b9f57611b9e612648565b5b602002602001015188600181518110611bbb57611bba612648565b5b6020026020010151611bcd9190612a3f565b600360008973ffffffffffffffffffffffffffffffffffffffff1673ffffffffffffffffffffffffffffffffffffffff16815260200190815260200160002060008c73ffffffffffffffffffffffffffffffffffffffff1673ffffffffffffffffffffffffffffffffffffffff1681526020019081526020016000206000828254611c589190612875565b925050819055508573ffffffffffffffffffffffffffffffffffffffff168773ffffffffffffffffffffffffffffffffffffffff167f0abece5f4aed6cf1fac4ddf8497567f25c27ca46be2737e9db8cc79679c3122d84604051611cbc9190612b60565b60405180910390a350505050505050505050565b6000735c69bee701ef814a2b6a3edd4b1652cb9cc5aa6f73ffffffffffffffffffffffffffffffffffffffff1663e6a4390585856040518363ffffffff1660e01b8152600401611d219291906125dd565b60206040518083038186803b158015611d3957600080fd5b505afa158015611d4d573d6000803e3d6000fd5b505050506040513d601f19601f82011682018060405250810190611d71919061261b565b90506000808273ffffffffffffffffffffffffffffffffffffffff16630902f1ac6040518163ffffffff1660e01b815260040160606040518083038186803b158015611dbc57600080fd5b505afa158015611dd0573d6000803e3d6000fd5b505050506040513d601f19601f82011682018060405250810190611df49190612fed565b506dffffffffffffffffffffffffffff1691506dffffffffffffffffffffffffffff16915060008673ffffffffffffffffffffffffffffffffffffffff1663313ce5676040518163ffffffff1660e01b815260040160206040518083038186803b158015611e6157600080fd5b505afa158015611e75573d6000803e3d6000fd5b505050506040513d601f19601f82011682018060405250810190611e999190613079565b60ff16905060008773ffffffffffffffffffffffffffffffffffffffff168573ffffffffffffffffffffffffffffffffffffffff16630dfe16816040518163ffffffff1660e01b815260040160206040518083038186803b158015611efd57600080fd5b505afa158015611f11573d6000803e3d6000fd5b505050506040513d601f19601f82011682018060405250810190611f35919061261b565b73ffffffffffffffffffffffffffffffffffffffff161415611fcd57611f5c84878461107b565b9050808573ffffffffffffffffffffffffffffffffffffffff168973ffffffffffffffffffffffffffffffffffffffff167f193f72dd1d5cfd32e859e4d95d5c0cfbf0225cf4755c40d85da28ae6313c50fc878787604051611fc0939291906130a6565b60405180910390a4612045565b611fd883878461107b565b9050808573ffffffffffffffffffffffffffffffffffffffff168973ffffffffffffffffffffffffffffffffffffffff167f193f72dd1d5cfd32e859e4d95d5c0cfbf0225cf4755c40d85da28ae6313c50fc87878760405161203c939291906130a6565b60405180910390a45b5050505050505050565b60008054906101000a900473ffffffffffffffffffffffffffffffffffffffff1681565b6000818361208191906130dd565b905092915050565b600060038211156120f057819050600060016002846120a89190613166565b6120b29190612875565b90505b818110156120ea5780915060028182856120cf9190613166565b6120d99190612875565b6120e39190613166565b90506120b5565b506120fe565b600082146120fd57600190505b5b919050565b600081836121119190612a3f565b905092915050565b600081836121279190613166565b905092915050565b8280548282559060005260206000209081019282156121705760005260206000209182015b8281111561216f578254825591600101919060010190612154565b5b50905061217d91906121ef565b5090565b508054600082559060005260206000209081019061219f91906121ef565b50565b8280548282559060005260206000209081019282156121de579160200282015b828111156121dd5782518255916020019190600101906121c2565b5b5090506121eb91906121ef565b5090565b5b808211156122085760008160009055506001016121f0565b5090565b6000604051905090565b600080fd5b600080fd5b600073ffffffffffffffffffffffffffffffffffffffff82169050919050565b600061224b82612220565b9050919050565b61225b81612240565b811461226657600080fd5b50565b60008135905061227881612252565b92915050565b60008060006060848603121561229757612296612216565b5b60006122a586828701612269565b93505060206122b686828701612269565b92505060406122c786828701612269565b9150509250925092565b6000819050919050565b6122e4816122d1565b81146122ef57600080fd5b50565b600081359050612301816122db565b92915050565b6000806000606084860312156123205761231f612216565b5b600061232e868287016122f2565b935050602061233f868287016122f2565b9250506040612350868287016122f2565b9150509250925092565b612363816122d1565b82525050565b600060208201905061237e600083018461235a565b92915050565b600080fd5b6000601f19601f8301169050919050565b7f4e487b7100000000000000000000000000000000000000000000000000000000600052604160045260246000fd5b6123d282612389565b810181811067ffffffffffffffff821117156123f1576123f061239a565b5b80604052505050565b600061240461220c565b905061241082826123c9565b919050565b600067ffffffffffffffff8211156124305761242f61239a565b5b602082029050602081019050919050565b600080fd5b600061245961245484612415565b6123fa565b9050808382526020820190506020840283018581111561247c5761247b612441565b5b835b818110156124a5578061249188826122f2565b84526020840193505060208101905061247e565b5050509392505050565b600082601f8301126124c4576124c3612384565b5b81356124d4848260208601612446565b91505092915050565b600080600080608085870312156124f7576124f6612216565b5b600061250587828801612269565b945050602061251687828801612269565b935050604085013567ffffffffffffffff8111156125375761253661221b565b5b612543878288016124af565b925050606061255487828801612269565b91505092959194509250565b60008060006060848603121561257957612578612216565b5b600061258786828701612269565b935050602061259886828701612269565b92505060406125a9868287016122f2565b9150509250925092565b6125bc81612240565b82525050565b60006020820190506125d760008301846125b3565b92915050565b60006040820190506125f260008301856125b3565b6125ff60208301846125b3565b9392505050565b60008151905061261581612252565b92915050565b60006020828403121561263157612630612216565b5b600061263f84828501612606565b91505092915050565b7f4e487b7100000000000000000000000000000000000000000000000000000000600052603260045260246000fd5b7f4e487b7100000000000000000000000000000000000000000000000000000000600052601160045260246000fd5b60006126b1826122d1565b91507fffffffffffffffffffffffffffffffffffffffffffffffffffffffffffffffff8214156126e4576126e3612677565b5b600182019050919050565b600082825260208201905092915050565b7f4465706f736974206e6f7420666f756e64000000000000000000000000000000600082015250565b60006127366011836126ef565b915061274182612700565b602082019050919050565b6000602082019050818103600083015261276581612729565b9050919050565b6000819050919050565b6000819050919050565b600061279b6127966127918461276c565b612776565b6122d1565b9050919050565b6127ab81612780565b82525050565b600060e0820190506127c6600083018a6125b3565b6127d360208301896125b3565b6127e0604083018861235a565b6127ed60608301876127a2565b6127fa60808301866127a2565b61280760a08301856125b3565b61281460c083018461235a565b98975050505050505050565b60008151905061282f816122db565b92915050565b6000806040838503121561284c5761284b612216565b5b600061285a85828601612820565b925050602061286b85828601612820565b9150509250929050565b6000612880826122d1565b915061288b836122d1565b9250827fffffffffffffffffffffffffffffffffffffffffffffffffffffffffffffffff038211156128c0576128bf612677565b5b828201905092915050565b60006060820190506128e060008301866125b3565b6128ed60208301856125b3565b6128fa604083018461235a565b949350505050565b60008115159050919050565b61291781612902565b811461292257600080fd5b50565b6000815190506129348161290e565b92915050565b6000602082840312156129505761294f612216565b5b600061295e84828501612925565b91505092915050565b7f52657475726e20666f7220746f6b656e2041206661696c656400000000000000600082015250565b600061299d6019836126ef565b91506129a882612967565b602082019050919050565b600060208201905081810360008301526129cc81612990565b9050919050565b7f52657475726e20666f7220746f6b656e2042206661696c656400000000000000600082015250565b6000612a096019836126ef565b9150612a14826129d3565b602082019050919050565b60006020820190508181036000830152612a38816129fc565b9050919050565b6000612a4a826122d1565b9150612a55836122d1565b925082821015612a6857612a67612677565b5b828203905092915050565b7f4e487b7100000000000000000000000000000000000000000000000000000000600052603160045260246000fd5b600081519050919050565b600082825260208201905092915050565b6000819050602082019050919050565b612ad7816122d1565b82525050565b6000612ae98383612ace565b60208301905092915050565b6000602082019050919050565b6000612b0d82612aa2565b612b178185612aad565b9350612b2283612abe565b8060005b83811015612b53578151612b3a8882612add565b9750612b4583612af5565b925050600181019050612b26565b5085935050505092915050565b60006020820190508181036000830152612b7a8184612b02565b905092915050565b60008160011c9050919050565b6000808291508390505b6001851115612bd957808604811115612bb557612bb4612677565b5b6001851615612bc45780820291505b8081029050612bd285612b82565b9450612b99565b94509492505050565b600082612bf25760019050612cae565b81612c005760009050612cae565b8160018114612c165760028114612c2057612c4f565b6001915050612cae565b60ff841115612c3257612c31612677565b5b8360020a915084821115612c4957612c48612677565b5b50612cae565b5060208310610133831016604e8410600b8410161715612c845782820a905083811115612c7f57612c7e612677565b5b612cae565b612c918484846001612b8f565b92509050818404811115612ca857612ca7612677565b5b81810290505b9392505050565b6000612cc0826122d1565b9150612ccb836122d1565b9250612cf87fffffffffffffffffffffffffffffffffffffffffffffffffffffffffffffffff8484612be2565b905092915050565b7f5061697220646f6573206e6f7420657869737400000000000000000000000000600082015250565b6000612d366013836126ef565b9150612d4182612d00565b602082019050919050565b60006020820190508181036000830152612d6581612d29565b9050919050565b7f4465706f73697420666f7220746f6b656e2041206661696c6564000000000000600082015250565b6000612da2601a836126ef565b9150612dad82612d6c565b602082019050919050565b60006020820190508181036000830152612dd181612d95565b9050919050565b7f4465706f73697420666f7220746f6b656e2042206661696c6564000000000000600082015250565b6000612e0e601a836126ef565b9150612e1982612dd8565b602082019050919050565b60006020820190508181036000830152612e3d81612e01565b9050919050565b600060208284031215612e5a57612e59612216565b5b6000612e6884828501612820565b91505092915050565b6000604082019050612e8660008301856125b3565b612e93602083018461235a565b9392505050565b600061010082019050612eb0600083018b6125b3565b612ebd602083018a6125b3565b612eca604083018961235a565b612ed7606083018861235a565b612ee460808301876127a2565b612ef160a08301866127a2565b612efe60c08301856125b3565b612f0b60e083018461235a565b9998505050505050505050565b600080600060608486031215612f3157612f30612216565b5b6000612f3f86828701612820565b9350506020612f5086828701612820565b9250506040612f6186828701612820565b9150509250925092565b60006dffffffffffffffffffffffffffff82169050919050565b612f8e81612f6b565b8114612f9957600080fd5b50565b600081519050612fab81612f85565b92915050565b600063ffffffff82169050919050565b612fca81612fb1565b8114612fd557600080fd5b50565b600081519050612fe781612fc1565b92915050565b60008060006060848603121561300657613005612216565b5b600061301486828701612f9c565b935050602061302586828701612f9c565b925050604061303686828701612fd8565b9150509250925092565b600060ff82169050919050565b61305681613040565b811461306157600080fd5b50565b6000815190506130738161304d565b92915050565b60006020828403121561308f5761308e612216565b5b600061309d84828501613064565b91505092915050565b60006060820190506130bb600083018661235a565b6130c8602083018561235a565b6130d5604083018461235a565b949350505050565b60006130e8826122d1565b91506130f3836122d1565b9250817fffffffffffffffffffffffffffffffffffffffffffffffffffffffffffffffff048311821515161561312c5761312b612677565b5b828202905092915050565b7f4e487b7100000000000000000000000000000000000000000000000000000000600052601260045260246000fd5b6000613171826122d1565b915061317c836122d1565b92508261318c5761318b613137565b5b82820490509291505056fea2646970667358221220a4f40d68f9cd88b863630bdcf3e40777dcd7da52fce3c6a0d79d4b24b107e5da64736f6c63430008090033",
  "linkReferences": {},
  "deployedLinkReferences": {}
}