{
  "_format": "hh-sol-artifact-1",
  "contractName": "MonoLiquidity",
  "sourceName": "contracts/MonoLiquidity.sol",
  "abi": [
    {
      "inputs": [],
      "stateMutability": "nonpayable",
      "type": "constructor"
    },
    {
      "anonymous": false,
      "inputs": [
        {
          "indexed": true,
          "internalType": "address",
          "name": "tokenA",
          "type": "address"
        },
        {
          "indexed": true,
          "internalType": "address",
          "name": "pair",
          "type": "address"
        },
        {
          "indexed": true,
          "internalType": "uint256",
          "name": "amount",
          "type": "uint256"
        },
        {
          "indexed": false,
          "internalType": "uint256",
          "name": "reserve0",
          "type": "uint256"
        },
        {
          "indexed": false,
          "internalType": "uint256",
          "name": "reserve1",
          "type": "uint256"
        }
      ],
      "name": "CalculatedSwapAmount",
      "type": "event"
    },
    {
      "anonymous": false,
      "inputs": [
        {
          "indexed": true,
          "internalType": "address",
          "name": "provider",
          "type": "address"
        },
        {
          "indexed": true,
          "internalType": "address",
          "name": "liquidityPool",
          "type": "address"
        },
        {
          "indexed": false,
          "internalType": "uint256[]",
          "name": "amountsProvided",
          "type": "uint256[]"
        }
      ],
      "name": "LiquidityProvided",
      "type": "event"
    },
    {
      "anonymous": false,
      "inputs": [
        {
          "indexed": true,
          "internalType": "address",
          "name": "remover",
          "type": "address"
        },
        {
          "indexed": true,
          "internalType": "address",
          "name": "liquidityPool",
          "type": "address"
        },
        {
          "indexed": false,
          "internalType": "uint256[]",
          "name": "amountsRemoved",
          "type": "uint256[]"
        }
      ],
      "name": "LiquidtyRemoved",
      "type": "event"
    },
    {
      "inputs": [
        {
          "internalType": "address",
          "name": "_tokenA",
          "type": "address"
        },
        {
          "internalType": "address",
          "name": "_tokenB",
          "type": "address"
        },
        {
          "internalType": "uint256[]",
          "name": "_amounts",
          "type": "uint256[]"
        },
        {
          "internalType": "address",
          "name": "_liquidityProvider",
          "type": "address"
        }
      ],
      "name": "addLiquidity",
      "outputs": [],
      "stateMutability": "nonpayable",
      "type": "function"
    },
    {
      "inputs": [
        {
          "internalType": "address",
          "name": "_tokenA",
          "type": "address"
        },
        {
          "internalType": "address",
          "name": "_tokenB",
          "type": "address"
        },
        {
          "internalType": "uint256",
          "name": "_amountA",
          "type": "uint256"
        }
      ],
      "name": "calculateOptimalLiquidity",
      "outputs": [],
      "stateMutability": "nonpayable",
      "type": "function"
    },
    {
      "inputs": [
        {
          "internalType": "uint256",
          "name": "r",
          "type": "uint256"
        },
        {
          "internalType": "uint256",
          "name": "a",
          "type": "uint256"
        },
        {
          "internalType": "uint256",
          "name": "decimals",
          "type": "uint256"
        }
      ],
      "name": "getSwapAmount",
      "outputs": [
        {
          "internalType": "uint256",
          "name": "",
          "type": "uint256"
        }
      ],
      "stateMutability": "pure",
      "type": "function"
    },
    {
      "inputs": [
        {
          "internalType": "address",
          "name": "_remover",
          "type": "address"
        },
        {
          "internalType": "address",
          "name": "_tokenA",
          "type": "address"
        },
        {
          "internalType": "address",
          "name": "_tokenB",
          "type": "address"
        }
      ],
      "name": "removeLiquidity",
      "outputs": [],
      "stateMutability": "nonpayable",
      "type": "function"
    }
  ],
  "bytecode": "0x608060405234801561001057600080fd5b50336000806101000a81548173ffffffffffffffffffffffffffffffffffffffff021916908373ffffffffffffffffffffffffffffffffffffffff160217905550613042806100606000396000f3fe608060405234801561001057600080fd5b506004361061004c5760003560e01c80633480c4581461005157806345cf2ef61461006d57806361e4290d1461009d578063b1ec2387146100b9575b600080fd5b61006b60048036038101906100669190612101565b6100d5565b005b6100876004803603810190610082919061218a565b61102a565b60405161009491906121ec565b60405180910390f35b6100b760048036038101906100b29190612360565b6110dd565b005b6100d360048036038101906100ce91906123e3565b611b7b565b005b6000735c69bee701ef814a2b6a3edd4b1652cb9cc5aa6f73ffffffffffffffffffffffffffffffffffffffff1663e6a4390584846040518363ffffffff1660e01b8152600401610126929190612445565b60206040518083038186803b15801561013e57600080fd5b505afa158015610152573d6000803e3d6000fd5b505050506040513d601f19601f820116820180604052508101906101769190612483565b90506000600160008673ffffffffffffffffffffffffffffffffffffffff1673ffffffffffffffffffffffffffffffffffffffff168152602001908152602001600020905060008019905060005b82805490508110156103be5760008382815481106101e5576101e46124b0565b5b906000526020600020906006020190508673ffffffffffffffffffffffffffffffffffffffff168160000160009054906101000a900473ffffffffffffffffffffffffffffffffffffffff1673ffffffffffffffffffffffffffffffffffffffff161480156102a357508573ffffffffffffffffffffffffffffffffffffffff168160010160009054906101000a900473ffffffffffffffffffffffffffffffffffffffff1673ffffffffffffffffffffffffffffffffffffffff16145b801561039c5750735c69bee701ef814a2b6a3edd4b1652cb9cc5aa6f73ffffffffffffffffffffffffffffffffffffffff1663e6a4390588886040518363ffffffff1660e01b81526004016102f9929190612445565b60206040518083038186803b15801561031157600080fd5b505afa158015610325573d6000803e3d6000fd5b505050506040513d601f19601f820116820180604052508101906103499190612483565b73ffffffffffffffffffffffffffffffffffffffff168160020160009054906101000a900473ffffffffffffffffffffffffffffffffffffffff1673ffffffffffffffffffffffffffffffffffffffff16145b156103aa57819250506103be565b5080806103b69061250e565b9150506101c4565b50600019811415610404576040517f08c379a00000000000000000000000000000000000000000000000000000000081526004016103fb906125b4565b60405180910390fd5b600080737a250d5630b4cf539739df2c5dacb4c659f2488d73ffffffffffffffffffffffffffffffffffffffff1663baa2abde85858154811061044a576104496124b0565b5b906000526020600020906006020160000160009054906101000a900473ffffffffffffffffffffffffffffffffffffffff1686868154811061048f5761048e6124b0565b5b906000526020600020906006020160010160009054906101000a900473ffffffffffffffffffffffffffffffffffffffff168787815481106104d4576104d36124b0565b5b90600052602060002090600602016005015460008030426040518863ffffffff1660e01b815260040161050d9796959493929190612619565b6040805180830381600087803b15801561052657600080fd5b505af115801561053a573d6000803e3d6000fd5b505050506040513d601f19601f8201168201806040525081019061055e919061269d565b915091506000600260008a73ffffffffffffffffffffffffffffffffffffffff1673ffffffffffffffffffffffffffffffffffffffff16815260200190815260200160002060008973ffffffffffffffffffffffffffffffffffffffff1673ffffffffffffffffffffffffffffffffffffffff1681526020019081526020016000205490506000600260008b73ffffffffffffffffffffffffffffffffffffffff1673ffffffffffffffffffffffffffffffffffffffff16815260200190815260200160002060008973ffffffffffffffffffffffffffffffffffffffff1673ffffffffffffffffffffffffffffffffffffffff1681526020019081526020016000205490506000600260008c73ffffffffffffffffffffffffffffffffffffffff1673ffffffffffffffffffffffffffffffffffffffff16815260200190815260200160002060008b73ffffffffffffffffffffffffffffffffffffffff1673ffffffffffffffffffffffffffffffffffffffff168152602001908152602001600020819055506000600260008c73ffffffffffffffffffffffffffffffffffffffff1673ffffffffffffffffffffffffffffffffffffffff16815260200190815260200160002060008a73ffffffffffffffffffffffffffffffffffffffff1673ffffffffffffffffffffffffffffffffffffffff168152602001908152602001600020819055508873ffffffffffffffffffffffffffffffffffffffff166323b872dd308c878661079291906126dd565b6040518463ffffffff1660e01b81526004016107b093929190612733565b602060405180830381600087803b1580156107ca57600080fd5b505af11580156107de573d6000803e3d6000fd5b505050506040513d601f19601f8201168201806040525081019061080291906127a2565b610841576040517f08c379a00000000000000000000000000000000000000000000000000000000081526004016108389061281b565b60405180910390fd5b8773ffffffffffffffffffffffffffffffffffffffff166323b872dd308c868561086b91906126dd565b6040518463ffffffff1660e01b815260040161088993929190612733565b602060405180830381600087803b1580156108a357600080fd5b505af11580156108b7573d6000803e3d6000fd5b505050506040513d601f19601f820116820180604052508101906108db91906127a2565b61091a576040517f08c379a000000000000000000000000000000000000000000000000000000000815260040161091190612887565b60405180910390fd5b60005b600160008c73ffffffffffffffffffffffffffffffffffffffff1673ffffffffffffffffffffffffffffffffffffffff16815260200190815260200160002080549050811015610f27578973ffffffffffffffffffffffffffffffffffffffff16600160008d73ffffffffffffffffffffffffffffffffffffffff1673ffffffffffffffffffffffffffffffffffffffff16815260200190815260200160002082815481106109cf576109ce6124b0565b5b906000526020600020906006020160000160009054906101000a900473ffffffffffffffffffffffffffffffffffffffff1673ffffffffffffffffffffffffffffffffffffffff16148015610ad157508873ffffffffffffffffffffffffffffffffffffffff16600160008d73ffffffffffffffffffffffffffffffffffffffff1673ffffffffffffffffffffffffffffffffffffffff1681526020019081526020016000208281548110610a8757610a866124b0565b5b906000526020600020906006020160010160009054906101000a900473ffffffffffffffffffffffffffffffffffffffff1673ffffffffffffffffffffffffffffffffffffffff16145b8015610b8a57508773ffffffffffffffffffffffffffffffffffffffff16600160008d73ffffffffffffffffffffffffffffffffffffffff1673ffffffffffffffffffffffffffffffffffffffff1681526020019081526020016000208281548110610b4057610b3f6124b0565b5b906000526020600020906006020160020160009054906101000a900473ffffffffffffffffffffffffffffffffffffffff1673ffffffffffffffffffffffffffffffffffffffff16145b15610f1457600160008c73ffffffffffffffffffffffffffffffffffffffff1673ffffffffffffffffffffffffffffffffffffffff16815260200190815260200160002060018060008e73ffffffffffffffffffffffffffffffffffffffff1673ffffffffffffffffffffffffffffffffffffffff16815260200190815260200160002080549050610c1c91906128a7565b81548110610c2d57610c2c6124b0565b5b9060005260206000209060060201600160008d73ffffffffffffffffffffffffffffffffffffffff1673ffffffffffffffffffffffffffffffffffffffff1681526020019081526020016000208281548110610c8c57610c8b6124b0565b5b90600052602060002090600602016000820160009054906101000a900473ffffffffffffffffffffffffffffffffffffffff168160000160006101000a81548173ffffffffffffffffffffffffffffffffffffffff021916908373ffffffffffffffffffffffffffffffffffffffff1602179055506001820160009054906101000a900473ffffffffffffffffffffffffffffffffffffffff168160010160006101000a81548173ffffffffffffffffffffffffffffffffffffffff021916908373ffffffffffffffffffffffffffffffffffffffff1602179055506002820160009054906101000a900473ffffffffffffffffffffffffffffffffffffffff168160020160006101000a81548173ffffffffffffffffffffffffffffffffffffffff021916908373ffffffffffffffffffffffffffffffffffffffff1602179055506003820181600301908054610de5929190611fb2565b506004820181600401908054610dfc929190611fb2565b5060058201548160050155905050600160008c73ffffffffffffffffffffffffffffffffffffffff1673ffffffffffffffffffffffffffffffffffffffff168152602001908152602001600020805480610e5957610e586128db565b5b6001900381819060005260206000209060060201600080820160006101000a81549073ffffffffffffffffffffffffffffffffffffffff02191690556001820160006101000a81549073ffffffffffffffffffffffffffffffffffffffff02191690556002820160006101000a81549073ffffffffffffffffffffffffffffffffffffffff0219169055600382016000610ef39190612004565b600482016000610f039190612004565b600582016000905550509055610f27565b8080610f1f9061250e565b91505061091d565b506000600267ffffffffffffffff811115610f4557610f4461221d565b5b604051908082528060200260200182016040528015610f735781602001602082028036833780820191505090505b5090508481600081518110610f8b57610f8a6124b0565b5b6020026020010181815250508381600181518110610fac57610fab6124b0565b5b6020026020010181815250508773ffffffffffffffffffffffffffffffffffffffff168b73ffffffffffffffffffffffffffffffffffffffff167f74871d466ec2200aa91372682cc92a0ae5dcf54c8cb0d044bbeb6879481dd14d8360405161101591906129c8565b60405180910390a35050505050505050505050565b60006110d46107ca6110c66110ab61104d6107cd89611ef690919063ffffffff16565b61109d611098611069623cda208b611ef690919063ffffffff16565b61107f623cda298d611ef690919063ffffffff16565b61108991906126dd565b8b611ef690919063ffffffff16565b611f0c565b611f8690919063ffffffff16565b85600a6110b89190612b1d565b611ef690919063ffffffff16565b611f9c90919063ffffffff16565b90509392505050565b6000735c69bee701ef814a2b6a3edd4b1652cb9cc5aa6f73ffffffffffffffffffffffffffffffffffffffff1663e6a4390586866040518363ffffffff1660e01b815260040161112e929190612445565b60206040518083038186803b15801561114657600080fd5b505afa15801561115a573d6000803e3d6000fd5b505050506040513d601f19601f8201168201806040525081019061117e9190612483565b9050600073ffffffffffffffffffffffffffffffffffffffff168173ffffffffffffffffffffffffffffffffffffffff1614156111f0576040517f08c379a00000000000000000000000000000000000000000000000000000000081526004016111e790612bb4565b60405180910390fd5b8473ffffffffffffffffffffffffffffffffffffffff166323b872dd833086600081518110611222576112216124b0565b5b60200260200101516040518463ffffffff1660e01b815260040161124893929190612733565b602060405180830381600087803b15801561126257600080fd5b505af1158015611276573d6000803e3d6000fd5b505050506040513d601f19601f8201168201806040525081019061129a91906127a2565b6112d9576040517f08c379a00000000000000000000000000000000000000000000000000000000081526004016112d090612c20565b60405180910390fd5b8373ffffffffffffffffffffffffffffffffffffffff166323b872dd83308660018151811061130b5761130a6124b0565b5b60200260200101516040518463ffffffff1660e01b815260040161133193929190612733565b602060405180830381600087803b15801561134b57600080fd5b505af115801561135f573d6000803e3d6000fd5b505050506040513d601f19601f8201168201806040525081019061138391906127a2565b6113c2576040517f08c379a00000000000000000000000000000000000000000000000000000000081526004016113b990612c8c565b60405180910390fd5b60008573ffffffffffffffffffffffffffffffffffffffff166370a08231306040518263ffffffff1660e01b81526004016113fd9190612cac565b60206040518083038186803b15801561141557600080fd5b505afa158015611429573d6000803e3d6000fd5b505050506040513d601f19601f8201168201806040525081019061144d9190612cc7565b905060008573ffffffffffffffffffffffffffffffffffffffff166370a08231306040518263ffffffff1660e01b815260040161148a9190612cac565b60206040518083038186803b1580156114a257600080fd5b505afa1580156114b6573d6000803e3d6000fd5b505050506040513d601f19601f820116820180604052508101906114da9190612cc7565b90508673ffffffffffffffffffffffffffffffffffffffff1663095ea7b3737a250d5630b4cf539739df2c5dacb4c659f2488d846040518363ffffffff1660e01b815260040161152b929190612cf4565b602060405180830381600087803b15801561154557600080fd5b505af1158015611559573d6000803e3d6000fd5b505050506040513d601f19601f8201168201806040525081019061157d91906127a2565b508573ffffffffffffffffffffffffffffffffffffffff1663095ea7b3737a250d5630b4cf539739df2c5dacb4c659f2488d836040518363ffffffff1660e01b81526004016115cd929190612cf4565b602060405180830381600087803b1580156115e757600080fd5b505af11580156115fb573d6000803e3d6000fd5b505050506040513d601f19601f8201168201806040525081019061161f91906127a2565b506000806000737a250d5630b4cf539739df2c5dacb4c659f2488d73ffffffffffffffffffffffffffffffffffffffff1663e8e337008b8b888860008030426040518963ffffffff1660e01b8152600401611681989796959493929190612d1d565b606060405180830381600087803b15801561169b57600080fd5b505af11580156116af573d6000803e3d6000fd5b505050506040513d601f19601f820116820180604052508101906116d39190612d9b565b9250925092506000600267ffffffffffffffff8111156116f6576116f561221d565b5b6040519080825280602002602001820160405280156117245781602001602082028036833780820191505090505b509050838160008151811061173c5761173b6124b0565b5b602002602001018181525050828160018151811061175d5761175c6124b0565b5b60200260200101818152505060006040518060c001604052808d73ffffffffffffffffffffffffffffffffffffffff1681526020018c73ffffffffffffffffffffffffffffffffffffffff1681526020018973ffffffffffffffffffffffffffffffffffffffff1681526020018b8152602001838152602001848152509050600160008a73ffffffffffffffffffffffffffffffffffffffff1673ffffffffffffffffffffffffffffffffffffffff16815260200190815260200160002081908060018154018082558091505060019003906000526020600020906006020160009091909190915060008201518160000160006101000a81548173ffffffffffffffffffffffffffffffffffffffff021916908373ffffffffffffffffffffffffffffffffffffffff16021790555060208201518160010160006101000a81548173ffffffffffffffffffffffffffffffffffffffff021916908373ffffffffffffffffffffffffffffffffffffffff16021790555060408201518160020160006101000a81548173ffffffffffffffffffffffffffffffffffffffff021916908373ffffffffffffffffffffffffffffffffffffffff1602179055506060820151816003019080519060200190611936929190612025565b506080820151816004019080519060200190611953929190612025565b5060a08201518160050155505081600081518110611974576119736124b0565b5b60200260200101518a6000815181106119905761198f6124b0565b5b60200260200101516119a291906128a7565b600260008b73ffffffffffffffffffffffffffffffffffffffff1673ffffffffffffffffffffffffffffffffffffffff16815260200190815260200160002060008e73ffffffffffffffffffffffffffffffffffffffff1673ffffffffffffffffffffffffffffffffffffffff1681526020019081526020016000206000828254611a2d91906126dd565b9250508190555081600181518110611a4857611a476124b0565b5b60200260200101518a600181518110611a6457611a636124b0565b5b6020026020010151611a7691906128a7565b600260008b73ffffffffffffffffffffffffffffffffffffffff1673ffffffffffffffffffffffffffffffffffffffff16815260200190815260200160002060008e73ffffffffffffffffffffffffffffffffffffffff1673ffffffffffffffffffffffffffffffffffffffff1681526020019081526020016000206000828254611b0191906126dd565b925050819055508773ffffffffffffffffffffffffffffffffffffffff168973ffffffffffffffffffffffffffffffffffffffff167f0abece5f4aed6cf1fac4ddf8497567f25c27ca46be2737e9db8cc79679c3122d84604051611b6591906129c8565b60405180910390a3505050505050505050505050565b6000735c69bee701ef814a2b6a3edd4b1652cb9cc5aa6f73ffffffffffffffffffffffffffffffffffffffff1663e6a4390585856040518363ffffffff1660e01b8152600401611bcc929190612445565b60206040518083038186803b158015611be457600080fd5b505afa158015611bf8573d6000803e3d6000fd5b505050506040513d601f19601f82011682018060405250810190611c1c9190612483565b90506000808273ffffffffffffffffffffffffffffffffffffffff16630902f1ac6040518163ffffffff1660e01b815260040160606040518083038186803b158015611c6757600080fd5b505afa158015611c7b573d6000803e3d6000fd5b505050506040513d601f19601f82011682018060405250810190611c9f9190612e70565b506dffffffffffffffffffffffffffff1691506dffffffffffffffffffffffffffff16915060008673ffffffffffffffffffffffffffffffffffffffff1663313ce5676040518163ffffffff1660e01b815260040160206040518083038186803b158015611d0c57600080fd5b505afa158015611d20573d6000803e3d6000fd5b505050506040513d601f19601f82011682018060405250810190611d449190612efc565b60ff16905060008773ffffffffffffffffffffffffffffffffffffffff168573ffffffffffffffffffffffffffffffffffffffff16630dfe16816040518163ffffffff1660e01b815260040160206040518083038186803b158015611da857600080fd5b505afa158015611dbc573d6000803e3d6000fd5b505050506040513d601f19601f82011682018060405250810190611de09190612483565b73ffffffffffffffffffffffffffffffffffffffff161415611e7657611e0784878461102a565b9050808573ffffffffffffffffffffffffffffffffffffffff168973ffffffffffffffffffffffffffffffffffffffff167fd1974e6c89aa5bf337342810a90b783b72c05a51d00f617000e1571a6ea4ca218787604051611e69929190612f29565b60405180910390a4611eec565b611e8183878461102a565b9050808573ffffffffffffffffffffffffffffffffffffffff168973ffffffffffffffffffffffffffffffffffffffff167fd1974e6c89aa5bf337342810a90b783b72c05a51d00f617000e1571a6ea4ca218787604051611ee3929190612f29565b60405180910390a45b5050505050505050565b60008183611f049190612f52565b905092915050565b60006003821115611f735781905060006001600284611f2b9190612fdb565b611f3591906126dd565b90505b81811015611f6d578091506002818285611f529190612fdb565b611f5c91906126dd565b611f669190612fdb565b9050611f38565b50611f81565b60008214611f8057600190505b5b919050565b60008183611f9491906128a7565b905092915050565b60008183611faa9190612fdb565b905092915050565b828054828255906000526020600020908101928215611ff35760005260206000209182015b82811115611ff2578254825591600101919060010190611fd7565b5b5090506120009190612072565b5090565b50805460008255906000526020600020908101906120229190612072565b50565b828054828255906000526020600020908101928215612061579160200282015b82811115612060578251825591602001919060010190612045565b5b50905061206e9190612072565b5090565b5b8082111561208b576000816000905550600101612073565b5090565b6000604051905090565b600080fd5b600080fd5b600073ffffffffffffffffffffffffffffffffffffffff82169050919050565b60006120ce826120a3565b9050919050565b6120de816120c3565b81146120e957600080fd5b50565b6000813590506120fb816120d5565b92915050565b60008060006060848603121561211a57612119612099565b5b6000612128868287016120ec565b9350506020612139868287016120ec565b925050604061214a868287016120ec565b9150509250925092565b6000819050919050565b61216781612154565b811461217257600080fd5b50565b6000813590506121848161215e565b92915050565b6000806000606084860312156121a3576121a2612099565b5b60006121b186828701612175565b93505060206121c286828701612175565b92505060406121d386828701612175565b9150509250925092565b6121e681612154565b82525050565b600060208201905061220160008301846121dd565b92915050565b600080fd5b6000601f19601f8301169050919050565b7f4e487b7100000000000000000000000000000000000000000000000000000000600052604160045260246000fd5b6122558261220c565b810181811067ffffffffffffffff821117156122745761227361221d565b5b80604052505050565b600061228761208f565b9050612293828261224c565b919050565b600067ffffffffffffffff8211156122b3576122b261221d565b5b602082029050602081019050919050565b600080fd5b60006122dc6122d784612298565b61227d565b905080838252602082019050602084028301858111156122ff576122fe6122c4565b5b835b8181101561232857806123148882612175565b845260208401935050602081019050612301565b5050509392505050565b600082601f83011261234757612346612207565b5b81356123578482602086016122c9565b91505092915050565b6000806000806080858703121561237a57612379612099565b5b6000612388878288016120ec565b9450506020612399878288016120ec565b935050604085013567ffffffffffffffff8111156123ba576123b961209e565b5b6123c687828801612332565b92505060606123d7878288016120ec565b91505092959194509250565b6000806000606084860312156123fc576123fb612099565b5b600061240a868287016120ec565b935050602061241b868287016120ec565b925050604061242c86828701612175565b9150509250925092565b61243f816120c3565b82525050565b600060408201905061245a6000830185612436565b6124676020830184612436565b9392505050565b60008151905061247d816120d5565b92915050565b60006020828403121561249957612498612099565b5b60006124a78482850161246e565b91505092915050565b7f4e487b7100000000000000000000000000000000000000000000000000000000600052603260045260246000fd5b7f4e487b7100000000000000000000000000000000000000000000000000000000600052601160045260246000fd5b600061251982612154565b91507fffffffffffffffffffffffffffffffffffffffffffffffffffffffffffffffff82141561254c5761254b6124df565b5b600182019050919050565b600082825260208201905092915050565b7f4465706f736974206e6f7420666f756e64000000000000000000000000000000600082015250565b600061259e601183612557565b91506125a982612568565b602082019050919050565b600060208201905081810360008301526125cd81612591565b9050919050565b6000819050919050565b6000819050919050565b60006126036125fe6125f9846125d4565b6125de565b612154565b9050919050565b612613816125e8565b82525050565b600060e08201905061262e600083018a612436565b61263b6020830189612436565b61264860408301886121dd565b612655606083018761260a565b612662608083018661260a565b61266f60a0830185612436565b61267c60c08301846121dd565b98975050505050505050565b6000815190506126978161215e565b92915050565b600080604083850312156126b4576126b3612099565b5b60006126c285828601612688565b92505060206126d385828601612688565b9150509250929050565b60006126e882612154565b91506126f383612154565b9250827fffffffffffffffffffffffffffffffffffffffffffffffffffffffffffffffff03821115612728576127276124df565b5b828201905092915050565b60006060820190506127486000830186612436565b6127556020830185612436565b61276260408301846121dd565b949350505050565b60008115159050919050565b61277f8161276a565b811461278a57600080fd5b50565b60008151905061279c81612776565b92915050565b6000602082840312156127b8576127b7612099565b5b60006127c68482850161278d565b91505092915050565b7f52657475726e20666f7220746f6b656e2041206661696c656400000000000000600082015250565b6000612805601983612557565b9150612810826127cf565b602082019050919050565b60006020820190508181036000830152612834816127f8565b9050919050565b7f52657475726e20666f7220746f6b656e2042206661696c656400000000000000600082015250565b6000612871601983612557565b915061287c8261283b565b602082019050919050565b600060208201905081810360008301526128a081612864565b9050919050565b60006128b282612154565b91506128bd83612154565b9250828210156128d0576128cf6124df565b5b828203905092915050565b7f4e487b7100000000000000000000000000000000000000000000000000000000600052603160045260246000fd5b600081519050919050565b600082825260208201905092915050565b6000819050602082019050919050565b61293f81612154565b82525050565b60006129518383612936565b60208301905092915050565b6000602082019050919050565b60006129758261290a565b61297f8185612915565b935061298a83612926565b8060005b838110156129bb5781516129a28882612945565b97506129ad8361295d565b92505060018101905061298e565b5085935050505092915050565b600060208201905081810360008301526129e2818461296a565b905092915050565b60008160011c9050919050565b6000808291508390505b6001851115612a4157808604811115612a1d57612a1c6124df565b5b6001851615612a2c5780820291505b8081029050612a3a856129ea565b9450612a01565b94509492505050565b600082612a5a5760019050612b16565b81612a685760009050612b16565b8160018114612a7e5760028114612a8857612ab7565b6001915050612b16565b60ff841115612a9a57612a996124df565b5b8360020a915084821115612ab157612ab06124df565b5b50612b16565b5060208310610133831016604e8410600b8410161715612aec5782820a905083811115612ae757612ae66124df565b5b612b16565b612af984848460016129f7565b92509050818404811115612b1057612b0f6124df565b5b81810290505b9392505050565b6000612b2882612154565b9150612b3383612154565b9250612b607fffffffffffffffffffffffffffffffffffffffffffffffffffffffffffffffff8484612a4a565b905092915050565b7f5061697220646f6573206e6f7420657869737400000000000000000000000000600082015250565b6000612b9e601383612557565b9150612ba982612b68565b602082019050919050565b60006020820190508181036000830152612bcd81612b91565b9050919050565b7f4465706f73697420666f7220746f6b656e2041206661696c6564000000000000600082015250565b6000612c0a601a83612557565b9150612c1582612bd4565b602082019050919050565b60006020820190508181036000830152612c3981612bfd565b9050919050565b7f4465706f73697420666f7220746f6b656e2042206661696c6564000000000000600082015250565b6000612c76601a83612557565b9150612c8182612c40565b602082019050919050565b60006020820190508181036000830152612ca581612c69565b9050919050565b6000602082019050612cc16000830184612436565b92915050565b600060208284031215612cdd57612cdc612099565b5b6000612ceb84828501612688565b91505092915050565b6000604082019050612d096000830185612436565b612d1660208301846121dd565b9392505050565b600061010082019050612d33600083018b612436565b612d40602083018a612436565b612d4d60408301896121dd565b612d5a60608301886121dd565b612d67608083018761260a565b612d7460a083018661260a565b612d8160c0830185612436565b612d8e60e08301846121dd565b9998505050505050505050565b600080600060608486031215612db457612db3612099565b5b6000612dc286828701612688565b9350506020612dd386828701612688565b9250506040612de486828701612688565b9150509250925092565b60006dffffffffffffffffffffffffffff82169050919050565b612e1181612dee565b8114612e1c57600080fd5b50565b600081519050612e2e81612e08565b92915050565b600063ffffffff82169050919050565b612e4d81612e34565b8114612e5857600080fd5b50565b600081519050612e6a81612e44565b92915050565b600080600060608486031215612e8957612e88612099565b5b6000612e9786828701612e1f565b9350506020612ea886828701612e1f565b9250506040612eb986828701612e5b565b9150509250925092565b600060ff82169050919050565b612ed981612ec3565b8114612ee457600080fd5b50565b600081519050612ef681612ed0565b92915050565b600060208284031215612f1257612f11612099565b5b6000612f2084828501612ee7565b91505092915050565b6000604082019050612f3e60008301856121dd565b612f4b60208301846121dd565b9392505050565b6000612f5d82612154565b9150612f6883612154565b9250817fffffffffffffffffffffffffffffffffffffffffffffffffffffffffffffffff0483118215151615612fa157612fa06124df565b5b828202905092915050565b7f4e487b7100000000000000000000000000000000000000000000000000000000600052601260045260246000fd5b6000612fe682612154565b9150612ff183612154565b92508261300157613000612fac565b5b82820490509291505056fea26469706673582212209b9e490ce01077d0e84f4668e2472af794651967a92c761dc1c85581c565eab864736f6c63430008090033",
  "linkReferences": {},
  "deployedLinkReferences": {}
}